:0600000002014902138B0E
:01000B0032C2
:0100130032BA
:01001B0032B2
:0100230032AA
:01002B0032A2
:030033000219743B
:01003B003292
:01004300328A
:01004B003282
:01005300327A
:01005B003272
:01006300326A
:01006B003262
:01007300325A
:01007B003252
:030083000214560E
:0301A200020086D2
:0500860012023980FEAA
:1001A50022E50A605890F16E740DF0539AFEE50A47
:1001B50030E44490F09DE0FAB40100E433FA2422DF
:1001C500FBE434F1FC8B828C83E0702BEA75F04103
:1001D500A4249EFBE434F0FC7D008B828C838DF09F
:1001E500C002121B80121A09D002EA2422F582E409
:1001F50034F1F5837401F0750A00439A01229000E9
:100205000022229000002243FE0343FE08C29343CE
:10021500FF10C2A42253BEFBE5BE30E6FB53C6B8B1
:10022500E5C620E6FB43BE04E5BE30E6FB2212022E
:100235001A02020C120233121B3B121290121BAD52
:10024500D2AF1201A512131D1201A680FB120100E7
:100255000202000040510415470100010203010993
:1002650002200001010080FA0904000002FFFF01DD
:100275000007058502F40101070505024000010498
:100285000309042403220022002200220022002266
:100295000022002200220022002200220022002249
:1002A5000022002200220026032200220022002232
:1002B5000022002200220022002200220022002229
:1002C5000022002200220022002200220008032230
:1002D500002200220000FF22AA82AB831ABAFF0186
:1002E5001BC3E49A74808BF063F08095F0500F7C0B
:1002F500B07D041CBCFF011DEC4D70F780DE22AA09
:1003050082AB831ABAFF011BC3E49A74808BF06336
:10031500F08095F040ED22AA82AB83D2908A828B41
:10032500831202DDC2908522828523830202DDAA23
:1003350082AB83C2AFD2909003E8C002C003120221
:10034500DDC2909001F41202DDD003D0021524AC79
:1003550024EC20E754EA30E024900019C002C003E1
:10036500C0041202DDD2909002261202DDC29090E6
:1003750000191202DDD004D003D0028022900113AF
:10038500C002C003C0041202DDD2909000321202F6
:10039500DDC2909001131202DDD004D003D002EB30
:1003A500C313CA13CAFB1C80A8C2909003E81202AB
:1003B500DDD2AF22AA827B0190DE0E7405F0E52A1C
:1003C500452B7001227C647D0090F09AE0FE30E0C0
:1003D5002CEC4D6028D290900002C002C003C004EE
:1003E500C0051202DDC29090000A1202DDD005D0D0
:1003F50004D003D00290F16F7401F080CCBB0130C2
:100405007B0090DE2A7440F0EAF0E529F0AE2A7F01
:100415000090DE2AEEF0E52BF0C374EF952A740107
:10042500952B50067CEF7D01801BAC2AAD2B8015EA
:10043500C374F4952A7401952B50067CF47D0180D4
:1004450004AC2AAD2BE52AC39CF52AE52B9DF52B9B
:10045500AE2CAF2DA82EEC4D60027401F960218EF3
:10046500828F8388F0121C31F9A3AE82AF838E2C64
:100475008F2D882E90DE2AE9F01CBCFF011D80D649
:100485008E2C8F2D882E90DE11E04401F090F09A8D
:10049500E0FC43040190F09AECF00203C322AA8227
:1004A500AB837C007D008A068B078E828F83E49365
:1004B500F8A3AE82AF83E860070CBC00ED0D80EABF
:1004C5008A2C8B2D752E807529F08C2A8D2B7582A3
:1004D500FE0203B985822F752C2F752D00752E40D0
:1004E5007529F1752A01E4F52B7582FE0203B9859C
:1004F5008230858331752C30752D00752E40752918
:10050500F2752A02E4F52B7582FE0203B985823263
:1005150085833385F034F535752C32752D00752EB0
:10052500407529F3752A04E4F52B7582FE0203B99B
:1005350090DE00E0FA700F90F09CE0FABA010050EE
:10054500051210E580EA7522C8E4F5239000C8027B
:10055500031C53BE7F43BE8090DE01E054FEF07560
:10056500280075260075270075250090DE0EE4F03D
:1005750090DE107408F090DE137408F090F08DE4AE
:10058500F090F08CF090F083F0A3F090F08574007B
:10059500F0A374F0F0A3E4F090F088F0A3F090F0ED
:1005A5008A7440F0A3E4F090DE0E7405F090DE103E
:1005B500743FF090DE137408F090DE15E04480F08F
:1005C50090DE12E04480F090F09BE4F090F09AF019
:1005D50090F091F0A3F090F0937440F0A374F0F0D4
:1005E500A3E4F090F096F0A3F090F0987440F0A397
:1005F500E4F090DE0B74F7F090DE0774FFF090DE08
:100605000974FFF0438C10538CFED2BD439A0275DA
:100615008900C2C5758B00C2E8439A022290F16E2B
:100625007402F043BE80120557D290D2AF22AA823F
:10063500AB83ACF090F08DE060287522E87523035C
:100645009003E812031C7522E87523039003E81252
:10065500031C7522E87523039003E812031C90FF21
:10066500FF2290F080EAF0A3EBF0A3ECF090F0838A
:10067500E536F0A3E537F090F08D7401F0900000B9
:1006850022AA82AB8390F08DE060287522E875235D
:10069500039003E812031C7522E87523039003E811
:1006A50012031C7522E87523039003E812031C90BE
:1006B500FFFF227C0090F080EAF0A3EBF0A3ECF0C2
:1006C50090F083E538F0A3E539F090F08D7401F0F2
:1006D50090000022AA82AB83ACF090F09BE060040E
:1006E50090FFFF2290F08EEAF0A3EBF0A3ECF090E0
:1006F500F091E50DF0A3E50EF090F09B7401F090FC
:100705000000227A0290DE0EE4F090F083E0FBA375
:10071500E0FCC374409BE49C50047D4080048B0541
:100725007A0A8D067F00EBC39EFBEC9FFC90F0835D
:10073500EBF0A3ECF08D03EB60047C0180027C0000
:10074500EC603690F080E0FCA3E0FDA3E0FE8C8237
:100755008D838EF0121C3190DE20F090F080E0FC4D
:10076500A3E0FDA3E0FE0CBC00010D90F080ECF0D1
:10077500A3EDF0A3EEF01B80BE90DE11E04AF090F1
:10078500F083E0FAA3E0FB4A700590F08DE4F022D7
:1007950090F08D7402F07582002290F085E0FAA346
:1007A500E0FBA3E0FC90DE16E0FD7E0090F088ED16
:1007B500F0A3EEF090F08CE0FD30E10A90F08D743E
:1007C50003F090FFFF2290F08CE0FD43050290F0CE
:1007D5008CEDF090F088E0FDA3E0FEC374409DE44D
:1007E5009E500990F0887440F0A3E4F090F088E002
:1007F500FDA3E0FEED4E60047F0180027F00EF6007
:100805001A90DE20E0FF8A828B838CF0121C18A3DD
:10081500AA82AB831DBDFF011E80D990F088E0FA46
:10082500A3E0FBC3EA9440EB940050031202079047
:10083500F088E0FAA3E08A82F5832290F093E0FA4B
:10084500A3E0FBA3E0FC90DE0E7405F090DE17E05C
:10085500FE7D0090DE16E0FF7800EF2DFDE83EFE00
:1008650090F096EDF0A3EEF090F09AE0FD30E111F6
:1008750090DE14E04420F090F09B7403F090FFFFAD
:100885002290F09AE0FD43050290F09AEDF090F089
:1008950096E0FDA3E0FE90F098E0FFA3E0F8C3EF3B
:1008A5009DE89E500890F096EFF0A3E8F090F09642
:1008B500E0FDA3E0FEED4E60047F0180027F00EFC6
:1008C500601A90DE2AE0FF8A828B838CF0121C1856
:1008D500A3AA82AB831DBDFF011E80D990DE14E063
:1008E50054FEF090F096E0FAA3E08A82F583227533
:1008F5003601E4F53790002875F040020633AA82E8
:10090500AB83ACF074022AFAE43BFB8A828B838CBE
:10091500F0121C31FAA3121C318A282285820E7B23
:10092500527C027D8074012BFEE43CFF8D008E829B
:100935008F8388F0121C31FEAF0DBEFF028052EE90
:10094500B50E2BEF70047EFF80F01F8B828C838D9C
:10095500F0121C312BFBE43CFC74012BF8E43CF950
:100965008D02888289838AF0121C31FE80CC8B82AD
:100975008C838DF0121C312BFBE43CFC74012BFAAB
:10098500E43CF88D018A82888389F0121C31FE804F
:10099500A98B828C838DF02285823A85833B85F0F5
:1009A5003C7402253AF544E4353BF545853C4685DE
:1009B50044828545838546F0121C31F8A3121C310B
:1009C500F989427543007401B54206E4B5430280D6
:1009D5001A7402B54206E4B54302802C7403B5428D
:1009E50007E4B54303020A8B020AA88982750D0044
:1009F50012092185823D85833E85F03F121C31FA1F
:100A05008A40754100020AC1898288048C0D120949
:100A15002185823D85833E85F03F7402253DFCE4BA
:100A2500353EFDAE3F8C828D838EF0121C31FC8CE1
:100A3500407541008544828545838546F0121C3109
:100A4500A3121C31FC7D007401253DFEE4353EFFFB
:100A5500AA3F8E828F838AF0121C31FE7A00ECB594
:100A65000606EDB502028054854482854583854698
:100A7500F0121C31FAA3121C31FB7524108A828BEB
:100A85008312033480E2898288028A0D1209218546
:100A9500823D85833E85F03F121C31FA8A407541BF
:100AA5000080198982880D12092185823D85833E42
:100AB50085F03F121C31FA8A407541007406253ACB
:100AC500FAE4353BFBAC3C8A828B838CF0121C31FB
:100AD500FAA3121C31FBC3EA9540EB954150048AF9
:100AE500408B41854036854137853D82853E8385EE
:100AF5003FF01206338544828545838546F0121CF6
:100B050031A3121C31FA7B00BA021BBB0018D2902C
:100B15009000021202DDC29090000A1202DD90F0F0
:100B25009CE0FA4401F02290DE0EE4F090DE11E044
:100B3500FA30E40D90F08DE4F090DE11E0FB448096
:100B4500F0EA30E22090DE11E4F090F16F7404F0E9
:100B550090F08DE4F07522C8E4F5239000C8C0023A
:100B650012031CD00290F08DE0FBBB03157522F437
:100B75007523019001F4C00212031CD00290F08D80
:100B8500E4F090F08DE06003020D8DEA20E00302B1
:100B95000D8D90DE0EE4F07A007B477C007D40BA37
:100BA5000800501690DE20E0FE8B828C838DF012BB
:100BB5001C18A3AB82AC830A80E5E547FA20E7035E
:100BC500020CAF74605AFB6015BB2003020D77BBA6
:100BD5004003020C90BB6003020C9C020D77741F4E
:100BE5005AFB7046AC48BC0002801CBC060280055E
:100BF500BC082B800C90004775F04012099D020D32
:100C0500771208F4020D77E4F54FF550753602E4D6
:100C1500F53790004F75F040120633020D779000BE
:100C25004775F0401204A2020D77BB011AAC48BC0F
:100C35000003020D77BC0A03020D7790004775F09B
:100C4500401204A2020D77BB022DAC48BC00028005
:100C550008BC1203020D778012753602E4F5379051
:100C65001C5175F080120633020D7790004775F020
:100C7500401204A2020D7790004775F0401204A2BD
:100C850090DE11E0FC4420F0020D7790004775F0EE
:100C950040120208020D7790DE11E04420F090002A
:100CA5004775F0401204A2020D7774605AFC601576
:100CB500BC2003020D77BC4003020D5BBC60030240
:100CC5000D66020D77741F5AFB703FAA48BA0103DF
:100CD500020D77BA0303020D77BA0502800BBA0736
:100CE50003020D77BA0917800990DE00E549F00285
:100CF5000D7790004775F040120903020D779000BB
:100D05004775F0401204A2020D77BB011DAA48BA2F
:100D15000103020D77BA03028058BA11028053907D
:100D2500004775F0401204A28048BB0217AA48BAD2
:100D35000102803EBA0302803990004775F04012E7
:100D450004A2802E90DE11E04420F090004775F05B
:100D5500401204A2801C90004775F04012020880E2
:100D65001190004775F0401204A290DE11E0FA449C
:100D750020F090DE11E0FA4440F0E54D454E700854
:100D850090DE11E0FA4408F090F08DE0FABA010324
:100D950012070890F08DE0FABA020302079F22902D
:100DA500DE0E7405F090F09AE0FA30E11490F09BB5
:100DB5007403F090DE14E04420F090F16F7405F0B8
:100DC5002290F09AE0FA43020290F09AEAF090DE5F
:100DD50017E0FB7A0090DE16E0FC7D00EC2AF55367
:100DE500ED3BF554C374409553E49554501990F078
:100DF5009B7403F090DE14E04420F07522C8E4F5FE
:100E05002390012C02031C90F093E0FCA3E0FDA3CA
:100E1500E0FE8C078D008F59885AA953AA54E94AD8
:100E250060047B0180027B00EB601A90DE2AE0FB08
:100E3500855982855A83F0A385825985835A19B9C4
:100E4500FF011A80D990F096E553F0A3E554F0C35D
:100E5500E5539408E554940050030210D774042C0C
:100E6500FAE43DFB8E018A828B8389F0121C31F5F1
:100E75005674052CFBE43DF98E028B8289838AF03A
:100E8500121C31F55574062CFFE43DF88F828883DA
:100E9500E0FBA38B53755400E0FBA3AF82A8838BC3
:100EA500047B00EB2553F553EC3554F55474FFB52D
:100EB500560280030210D27480B55502802B7481CE
:100EC500B55503020F4A7482B55503021038748371
:100ED500B555030210507484B55503020FCB7485C4
:100EE500B5550302106A0210AD8F828883E0FBA31B
:100EF5008B53755400E0FBA3AF82A8838B047B0062
:100F0500EB2553F553EC3554F5548F828883E0FB7C
:100F1500A38B51755200E0FE7D00ED2551F551EE94
:100F25003552F55285515785525885572C85582D80
:100F3500752E0085552985532A85542B8556821291
:100F450003B90210C38F828883E0F9A389517552D2
:100F550000E0F9A3AF82A88389037900E92551F55B
:100F650051EB3552F5528551578552588F038804F8
:100F750085575985585A755102E4F552C3E551957F
:100F850053E552955450248B828C83E0FAA3AB82AF
:100F9500AC83855982855A83EAF0A3858259858376
:100FA5005A0551E4B551D5055280D1752C54752D8E
:100FB5001C752E80855529752A01E4F52B855682E9
:100FC5001203B90210C38F828883E0FAA38A517590
:100FD5005200E0FAA3AF82A8838A037A00EA25517A
:100FE500F551EB3552F5528551578552588F028888
:100FF500037C027900C3EC9553E99554501A8A8213
:101005008B83E0FDA3AA82AB83855782855883ED48
:10101500F00CBC00E00980DD752C56752D1C752E75
:1010250080855529752A01E4F52B8556821203B969
:101035000210C38F2C882D752E0085552985532ABE
:1010450085542B8556821203B98073752C57752DDF
:101055001C752E80855529752A0DE4F52B8556823C
:101065001203B980598F828883E0FAA3AF82A883DF
:10107500BA0102800ABA0202801FBA032B800DC092
:1010850007C000121367D000D007801CC007C0003E
:10109500121379D000D007800F8F828883C007C0D4
:1010A500001212D7D000D0078F2C882D752E008501
:1010B500552985532A85542B8556821203B990F0FC
:1010C5009AE0FA5302FD90F09AEAF0800B120203BF
:1010D500800690F16F7407F090DE14E054FEF02264
:1010E500E52630E411120B2C74E75526FA740F55DA
:1010F50027FB8A268B27AA26AB27EA30E011752520
:101105000174FE5526FCAD278C268D2743BE01EACA
:101115005406602C90F16E740AF075250274FD5525
:1011250026FAAB278A268B2790DE01E04404F0904F
:1011350000081202DD90DE01E0FA54FBF07525008F
:10114500E52620E2057403B5251412055790F16EC6
:10115500740BF074FB5526FAAB278A268B27E527F7
:1011650030E63590F16E740CF090F09BE0FABA031E
:101175001990F16F7408F090F09BE4F090DE0E7416
:1011850005F090DE14E0FA549FF0120DA4AA26741F
:10119500BF5527FB8A268B27AA26AB27EA54E07082
:1011A50005EB54BD601E90F16F7409F07524108A2B
:1011B500828B8312033474E05526FA74BD5527FBE0
:1011C5008A268B2774FFB52513D290900002120250
:1011D500DDC29090000A1202DD75250022C0E0C034
:1011E50082C083C002C003C004C005C0D075D00052
:1011F500E5BE30E6FBC2AF90DE06E0FA7B00E526F1
:101205004202E52742038A268B2790DE02E0FCE4B2
:10121500C454F0CCC4CC6CCC54F0CC6CFDEC420284
:10122500ED42038A268B2790DE04E025E0FDE4FCF1
:101235004202ED42038A26EBF52730E11890F09A39
:10124500E0FA5302FE90F09AEAF0AA2674FD5527BB
:10125500FB8A268B27758B00C2E8D2AFD0D0D0058C
:10126500D004D003D002D083D082D0E032C0E0E5F4
:10127500BE30E6FBC2AFE58930E70375250253BEF4
:0B128500FC758900C2C5D2AFD0E0327A
:101C5100000000300000554E494D504C454D454E59
:041C610054454400A2
:10129000750D00750E82E4F50F90F09E75F000124A
:1012A0001BF9750D00750E41E4F50F90F12475F0F2
:1012B00000121BF9D2A87591FF75E900750A004369
:1012C0009A010212C575E10490DF3BE0FA30E0F8C4
:1012D00090F1657403F022AA82AB83C002C00312AE
:1012E00012C5750D00750E41E4F50F90F12475F0EF
:1012F00000121BF9D003D0028A0D8B0E750F0090DF
:10130000F12475F000121BB990F191E4F075E1033E
:1013100090DF3BE0FA541360F775820022750D00F0
:10132000750E41E4F50F90F09E75F000121BF990D8
:10133000F120E4F090F121F090F122F090F123748B
:1013400001F090F09DE4F0539BFC53E9EF75E1024E
:10135000439110225391EF1212C543D68153D1FE0F
:10136000539BFC53E9EF2290F165E0FABA010122A8
:1013700090F1657401F002131D90F165E0FABA0175
:101380000912135490F1657403F022C0E0C0F0C05C
:1013900082C083C002C003C004C005C006C007C02D
:1013A000D075D00090F16F7411F090DF3BE0FABA85
:1013B0000D5890F09DE075F041A4249EFAE434F0BD
:1013C000FB90F09DE02420FCE434F1FD8C828D83C1
:1013D000E0FE04FF8C828D83F0EE2AF582E43BF57B
:1013E00083E5D9F090F09DE02420F582E434F1F516
:1013F00083E0FABA4100404590F09DE0FA2420F5E0
:1014000082E434F1F583E4F0803390DF3BE0FABA14
:10141000132B90F191E02424FAE434F1FB8A828BBF
:1014200083E0601990F191E0FA90F191E02401F0ED
:10143000EA2424F582E434F1F583E0F5D9C289D0B9
:10144000D0D007D006D005D004D003D002D083D0AE
:1014500082D0F0D0E032C020C0E0C0F0C082C083B3
:10146000C002C003C004C005C006C007C000C00160
:10147000C0D075D00090F16F7410F0539BFCE5E97B
:10148000420AE5E930E60912135412131D02153819
:10149000E5E930E7061212C5021538E5E920E40354
:1014A00002153890F09DE0FAB40100E4332422F5EF
:1014B00082E434F1F583E0FABA014A90F09DE0FA53
:1014C000B40100E43375F041A4249EFAE434F0FB47
:1014D0007C00750D00750E41E4F50F8A828B838CBC
:1014E000F0121BF990F09DE06401F090F09DE0FA9D
:1014F0002420F582E434F1F583E4F090F122F090B9
:10150000F123F0803390F09DE075F041A4249EFA21
:10151000E434F0FB7C00750D00750E41E4F50F8A94
:10152000828B838CF0121BF990F09DE0FA2420F559
:1015300082E434F1F583E4F075E900D0D0D001D035
:1015400000D007D006D005D004D003D002D083D07D
:0815500082D0F0D0E0D020327F
:011C6500007E
:1015580090DE077421F090DE097410F090DE0B74B1
:1015680004F02290DE0EE4F090DE11E0FA30E101A2
:101578002290F184E0FA90F18BF0EA24DF50069093
:10158800F18B7420F090F18C7402F090F18BE0FBF9
:10159800BB2002800B90F18C740AF090F180E4F08B
:1015A80090F18BE0FB90F184EAC39BF08B028A03F5
:1015B8001AEB602A90F181E0FBA3E0FCA3E0FD8B2D
:1015C800828C838DF0121C31FE90F18174012BF016
:1015D800E43CA3F0A3EDF090DE20EEF080D090DEA6
:1015E8000EE4F090F18CE090DE11F022AA82AB8339
:1015F8008B0490F18D74AAF0A37400F0A37480F0AA
:1016080090F18DE0FBA3E0FDA3E0FE8B828D838E3D
:10161800F0121C31FF700122C00774012BF8E43D61
:10162800F98E07888289838FF0121C31F8B504027D
:101638008004D007803ED0078A001AE87036BC02C2
:101648001774022BFBE43DFD8B828D838EF0121CF8
:1016580031FB90F184F0800590F184EFF090F18DEA
:10166800E0FBA3E0FDA3E0FE90F181EBF0A3EDF039
:10167800A3EEF02290F18DE0FBA3E0FDA3E0FE8B4A
:10168800828D838EF0121C31FF90F18DEF2BF0E4E8
:101698003DA3F0A3EEF002160890DE0EE4F090DE13
:1016A80016E0FA90F190F090F187E0FBC39A5005AC
:1016B80090F190EBF090F190E0FA90F187EBC39AFB
:1016C800F08A031AEB601F90F188E0FBA3E0FC901E
:1016D800DE20E0FD8B828C83F090F18874012BF082
:1016E800E43CA3F080DB22AA8290F184E0FB90F135
:1016F8008404F0EB2485F582E434F1F583EAF022E2
:10170800AA8290F1777401F090DE0074804AF0901C
:10171800DE00E0FA20E7F82290DE0E7405F090DE95
:10172800107408F090DE12E04401F090DE0E7404AC
:10173800F090DE137408F090DE157401F02290F139
:10174800887478F0A374F1F090F1877408F0121699
:10175800A190F187E0FA60012290F178E0FA30E791
:101768001A90F17EE0FBA3E0FC4B600890F18074D6
:1017780001F0801F90F180E4F0801890F17EE0FB8A
:10178800A3E0FC4B600890F1807402F0800590F1B2
:1017980080E4F090DE0EE4F090F180E0FB700890B9
:1017A800DE117448F0800690DE117440F090F181EB
:1017B8007485F0A374F1F0A3E4F090F184F0746000
:1017C8005AFB6009BB20030218910218C553021F77
:1017D800BA0002800FBA0103021858BA02030218AD
:1017E8007A0218C590F179E0FA6017BA05028021EB
:1017F800BA0602802BBA08028038BA0902803F0272
:1018080018C57582001216EF7582001216EF0218BD
:10181800C590F17AE0FAA3E08A821217080218C587
:1018280090F17AE0FAA3E0FB8A828B831215F40226
:1018380018C590F18AE0F5821216EF0218C590F1EA
:101848007AE0FAA3E090F18AEAF01217200218C5AC
:1018580090F179E0FA6005BA0A63800E7582001289
:1018680016EF7582001216EF80537582001216EF7C
:10187800804B90F179E0FA6002804275820012167E
:10188800EF7582001216EF803490F179E0FABA20F1
:10189800028005BA2127801290F1877407F090F131
:1018A800887492F0A374F1F0801390F1847407F0B7
:1018B80090F1817492F0A374F1F0A3E4F090F180B8
:1018C800E0FABA02012290F17EE0FAA3E0FB90F17F
:1018D80084E0FC7D00C3EA9CEB9D500590F184EA0E
:1018E800F002156B90F176E0FA20E0012290F17693
:1018F800E054FEF090DE0EE4F090DE11E0FA30E401
:101908000B90F180E4F090DE117480F0EA30E20D83
:1019180090F180E4F090DE11E0FB54FBF090F18050
:10192800E0FBBB010BEA20E107C00212156BD002F5
:10193800EA30E03790F180E0FA6005BA022D8003C2
:101948000217461216A190F187E0FA700590F1800F
:10195800E4F090DE0EE4F090F180E0FA700790DE9B
:10196800117448F02290DE117440F022C020C0E0CB
:10197800C0F0C082C083C002C003C004C005C00656
:10198800C007C000C001C0D075D000C2E890DE0218
:10199800E0FA90F176E04AF01218EC90DE06E0FAF0
:1019A80030E203121558D0D0D001D000D007D006AD
:1019B800D005D004D003D002D083D082D0F0D0E0BC
:1019C800D0203290DE0E7405F090DE11E0FA30E09F
:1019D8000A90F176E0FA20E5EA80F62290DE0E74AD
:1019E80005F090DE11E04401F090F170E0FAA3E018
:1019F800FB90F172EAF0A3EBF090F170E4F0A3F041
:101A08002290F177E0FA70012290F170E0FAA3E0F9
:101A1800FB4A700E90F172E0FAA3E0FBBA4009BBF2
:101A280000061219CB0219E422AA8290F177E0FB92
:101A3800700122C0021219CBD00290DE2AEAF0907F
:101A4800F170E02401F0A3E03400F090F170E0FAC6
:101A5800A3E0FBBA4006BB00030219E42290F1742C
:101A6800E0FAA3E0FB4A704290DE0E7404F090DEC8
:101A780014E0FA20E0047582FF2290DE17E0FB7A7A
:101A88000090DE16E0FC7D004202ED420390F17406
:101A9800EAF0A3EBF0EA4B701190DE0E7404F090BC
:101AA800DE14E054FEF07582FF2290F174E024FF0A
:101AB800FAA3E034FFFB90F174EAF0A3EBF090DEB8
:101AC80028E0FA90F174E0FBA3E0FC4B700E90DE86
:101AD8000E7404F090DE14E0FB54FEF08A822212A9
:101AE8001A65AA828A03BAFF0A90DE04E0FA20E4A3
:101AF800EE80F68B822243BE8012172012155843BF
:101B08009A0290DE06E4F090DE04F090DE02F0C265
:101B1800E82290DE07E4F090DE09F090DE0BF05347
:101B28009AFD90DE06E4F090DE04F090DE02F053B9
:101B3800BE7F2290F180E4F090F176F0021AFEAABE
:101B480082AB83ACF0C002C003C004121AE7AD82B6
:101B5800D004D003D0028D06BD0A0280118A828B80
:101B6800838CF0EE121C18A3AA82AB8380D78A82DA
:101B78008B838CF0E4021C18AA82AB83ACF08A82B7
:101B88008B838CF0121C31FD60188D820ABA00011B
:101B98000BC002C003C004121A31D004D003D00213
:101BA80080DC021A0943FE02D29122C29153FEFD43
:011BB800220A
:071C660000C20100000008AC
:1000AA001201100102000020FEFF0A0010000102E6
:1000BA00030109024300020100C0320904000001E1
:1000CA000202010005240010010524010101042493
:1000DA00020205240600010705810308000A090433
:1000EA000100020A0000000705040240000007059B
:1000FA0085024000000403090410034A006F0062ED
:10010A000079004700500053001C034300430020BD
:10011A000042006F006F0074006C006F00610064A1
:10012A0000650072000E03300030003000300030ED
:04013A000031000090
:101BB90085821085831185F012AD0DAE0EAF0FA889
:101BC90010A911AA128D828E838FF0121C31FBA3EA
:101BD900AD82AE83888289838AF0EB121C18A3A890
:101BE90082A983EB70DF8510828511838512F0222B
:06017800E478FFF6D8FD5B
:101BF900AC82AD83AE0EAF0FBE0004EF600C1F0FB9
:0F1C0900E50D121C18A3DEFADFF88C828D832202
:100156007908E94400601B7A01901C6578917593D3
:10016600F1E493F2A308B800020593D9F4DAF27524
:0201760093FFF5
:101C180020F71030F6118883A88220F507F6A883EC
:091C280075830022F280F7F0221E
:10017E007800E84400600A79007593F0E4F309D83A
:10018E00FC7891E84401600C790290F000E4F0A351
:04019E00D8FCD9FAB6
:0D01490075815A121C4DE58260030200868C
:101C310020F71430F6148883A88220F507E6A883DC
:101C410075830022E280F7E49322E022758200226C
:00000001FF
