:060000000201490204C5E3
:01000B0032C2
:0100130032BA
:01001B0032B2
:0100230032AA
:01002B0032A2
:03003300020B3D80
:01003B003292
:01004300328A
:01004B003282
:01005300327A
:01005B003272
:01006300326A
:01006B003262
:01007300325A
:01007B003252
:03008300020590E3
:0301A200020086D2
:0500860012023A80FEA9
:1001A50022E50A605890F0DE740DF0539AFEE50AD8
:1001B50030E44490F00DE0FAB40100E433FA2492FF
:1001C500FBE434F0FC8B828C83E0702BEA75F04104
:1001D500A4240EFBE434F0FC7D008B828C838DF02F
:1001E500C002120D49120BD2D002EA2492F582E424
:1001F50034F0F5837401F0750A00439A01229000EA
:100205000022229000002243FD0FC280C281C282DB
:10021500C28343FE032253BEFBE5BE30E6FB53C655
:10022500B8E5C620E6FB43BE04E5BE30E6FB221278
:10023500021B02020C90F000740BF090F001744860
:10024500F090F0027441F090F003744CF090F004DB
:10025500744CF090F005744FF090F0067443F090F4
:10026500F0077443F090F0087431F090F0097431A0
:10027500F090F00A7431F090F00B7431F090F00CBE
:10028500E4F0120234120D041202A0120D76D2AF60
:100295001201A51204571201A680FB750D00750EFB
:1002A50082E4F50F90F00E75F000120DC2750D0089
:1002B500750E41E4F50F90F09475F000120DC290A3
:1002C500DF2FE4F090DF30F090DF31F090DF007445
:1002D5000CF090DF01744EF090DF0274FFF090DFB8
:1002E500037440F090DF047401F090DF05E4F090B2
:1002F500DF06F090DF077406F090DF08E4F090DF8A
:10030500097424F090DF0A743AF090DF0B74F1F071
:1003150090DF0C74CAF090DF0D74A3F090DF0E74BB
:1003250003F090DF0F7423F090DF107411F090DF6D
:10033500117436F090DF127407F090DF13743CF0FF
:1003450090DF147418F090DF157417F090DF1674B1
:100355006CF090DF177403F090DF187440F090DFB5
:10036500197491F090DF1A7456F090DF1B7410F039
:1003750090DF1C74E9F090DF1D742AF090DF1EE415
:10038500F090DF1F741FF090DF237481F090DF245D
:100395007435F090DF257409F090DF2E7450F0D29B
:1003A500A87591FF75E900750A00439A010203B526
:1003B50075E10490DF3BE0FA30E0F890F0D5740386
:1003C500F0227A007B00C3EA94DCEB94055024907C
:1003D500DF3CE0FC5450600490000122900032C0E4
:1003E50002C003120709D003D00274322AFAE43B93
:1003F500FB80D390000022AA82AB83C002C0031207
:1004050003B5750D00750E41E4F50F90F09475F088
:1004150000120DC2D003D0028A0D8B0E750F00900D
:10042500F09475F000120D8290F101E4F075E1028F
:1004350090DF3BE0FA540D60F790DF3CE0FA545052
:1004450060F775E10390DF3BE0FA541360F77582BE
:100455000022750D00750E41E4F50F90F00E75F054
:1004650000120DC290F090E4F090F091F090F092AF
:10047500F090F0937401F090F00DE4F0539BFC5371
:10048500E9EF75E102439110225391EF1203B54351
:10049500D68153D1FE539BFC53E9EF2290F0D5E072
:1004A500FABA01012290F0D57401F002045790F0D8
:1004B500D5E0FABA010912048E90F0D57403F02242
:1004C500C0E0C0F0C082C083C002C003C004C00544
:1004D500C006C007C0D075D00090F0DF7411F09051
:1004E500DF3BE0FABA0D5890F00DE075F041A42419
:1004F5000EFAE434F0FB90F00DE02490FCE434F0C7
:10050500FD8C828D83E0FE04FF8C828D83F0EE2AC4
:10051500F582E43BF583E5D9F090F00DE02490F504
:1005250082E434F0F583E0FABA4100404590F00DDD
:10053500E0FA2490F582E434F0F583E4F08033901A
:10054500DF3BE0FABA132B90F101E02494FAE4348E
:10055500F0FB8A828B83E0601990F101E0FA90F15B
:1005650001E02401F0EA2494F582E434F0F583E017
:10057500F5D9C289D0D0D007D006D005D004D00394
:10058500D002D083D082D0F0D0E032C020C0E0C00D
:10059500F0C082C083C002C003C004C005C006C04D
:1005A50007C000C001C0D075D00090F0DF7410F016
:1005B500539BFCE5E9420AE5E930E60BD2831204D8
:1005C5008E1204570206C2E5E930E7061203B502AA
:1005D50006C2E5E920E40302068490F0D5E0FABA04
:1005E500020643D6810206C290F00DE0FAB401007E
:1005F500E4332492F582E434F0F583E0FABA014A53
:1006050090F00DE0FAB40100E43375F041A4240E36
:10061500FAE434F0FB7C00750D00750E41E4F50F2E
:100625008A828B838CF0120DC290F00DE06401F08C
:1006350090F00DE0FA2490F582E434F0F583E4F0CF
:1006450090F092F090F093F0807390F00DE075F0DB
:1006550041A4240EFAE434F0FB7C00750D00750E00
:1006650041E4F50F8A828B838CF0120DC290F00D58
:10067500E0FA2490F582E434F0F583E4F0803EE579
:10068500E930E00B10830280028032D283802EE5B0
:10069500E930E10B10820280028022D282801EE5C1
:1006A500E930E20B10810280028012D281800EE5D2
:1006B500E930E30910800280028002D28075E900EA
:1006C500D0D0D001D000D007D006D005D004D003BB
:0D06D500D002D083D082D0F0D0E0D020320F
:010E1A0000D7
:1006E200AA82AB831ABAFF011BC3E49A74808BF00F
:1006F20063F08095F0500F7CB07D041CBCFF011D9F
:10070200EC4D70F780DE22AA82AB831ABAFF011B7E
:10071200C3E49A74808BF063F08095F040ED2290F0
:10072200DE077421F090DE097410F090DE0B740481
:10073200F02290DE0EE4F090DE11E0FA30E10122C8
:1007420090F0F4E0FA90F0FBF0EA24DF500690F02B
:10075200FB7420F090F0FC7402F090F0FBE0FBBB25
:100762002002800B90F0FC740AF090F0F0E4F0901C
:10077200F0FBE0FB90F0F4EAC39BF08B028A031AD1
:10078200EB602A90F0F1E0FBA3E0FCA3E0FD8B829A
:100792008C838DF0120DFAFE90F0F174012BF0E4CF
:1007A2003CA3F0A3EDF090DE20EEF080D090DE0EC0
:1007B200E4F090F0FCE090DE11F022AA82AB838B91
:1007C2000490F0FD74AAF0A37400F0A37480F0907A
:1007D200F0FDE0FBA3E0FDA3E0FE8B828D838EF0B3
:1007E200120DFAFF700122C00774012BF8E43DF9E3
:1007F2008E07888289838FF0120DFAF8B504028081
:1008020004D007803ED0078A001AE87036BC02176F
:1008120074022BFBE43DFD8B828D838EF0120DFA68
:10082200FB90F0F4F0800590F0F4EFF090F0FDE032
:10083200FBA3E0FDA3E0FE90F0F1EBF0A3EDF0A34B
:10084200EEF02290F0FDE0FBA3E0FDA3E0FE8B8240
:100852008D838EF0120DFAFF90F0FDEF2BF0E43D48
:10086200A3F0A3EEF00207D190DE0EE4F090DE16C4
:10087200E0FA90F100F090F0F7E0FBC39A50059097
:10088200F100EBF090F100E0FA90F0F7EBC39AF090
:100892008A031AEB601F90F0F8E0FBA3E0FC90DE05
:1008A20020E0FD8B828C83F090F0F874012BF0E451
:1008B2003CA3F080DB22AA8290F0F4E0FB90F0F4FB
:1008C20004F0EB24F5F582E434F0F583EAF022AA91
:1008D2008290F0E77401F090DE0074804AF090DEBE
:1008E20000E0FA20E7F82290DE0E7405F090DE10A8
:1008F2007408F090DE12E04401F090DE0E7404F011
:1009020090DE137408F090DE157401F02290F0F876
:1009120074E8F0A374F0F090F0F77408F012086A2B
:1009220090F0F7E0FA60012290F0E8E0FA30E71A7E
:1009320090F0EEE0FBA3E0FC4B600890F0F0740155
:10094200F0801F90F0F0E4F0801890F0EEE0FBA34E
:10095200E0FC4B600890F0F07402F0800590F0F03B
:10096200E4F090DE0EE4F090F0F0E0FB700890DE30
:10097200117448F0800690DE117440F090F0F1742A
:10098200F5F0A374F0F0A3E4F090F0F4F074605A80
:10099200FB6009BB2003020A5A020A8E53021FBAE5
:1009A2000002800FBA0103020A21BA0203020A43BB
:1009B200020A8E90F0E9E0FA6017BA05028021BAC5
:1009C2000602802BBA08028038BA0902803F020A66
:1009D2008E7582001208B87582001208B8020A8E5B
:1009E20090F0EAE0FAA3E08A821208D1020A8E901D
:1009F200F0EAE0FAA3E0FB8A828B831207BD020AC7
:100A02008E90F0FAE0F5821208B8020A8E90F0EAAF
:100A1200E0FAA3E090F0FAEAF01208E9020A8E90F6
:100A2200F0E9E0FA6005BA0A63800E7582001208E6
:100A3200B87582001208B880537582001208B88017
:100A42004B90F0E9E0FA600280427582001208B829
:100A52007582001208B8803490F0E9E0FABA2002F8
:100A62008005BA2127801290F0F77407F090F0F811
:100A72007402F0A374F1F0801390F0F47407F09014
:100A8200F0F17402F0A374F1F0A3E4F090F0F0E05E
:100A9200FABA02012290F0EEE0FAA3E0FB90F0F441
:100AA200E0FC7D00C3EA9CEB9D500590F0F4EAF077
:100AB20002073490F0E6E0FA20E0012290F0E6E04E
:100AC20054FEF090DE0EE4F090DE11E0FA30E40B1A
:100AD20090F0F0E4F090DE117480F0EA30E20D90D4
:100AE200F0F0E4F090DE11E0FB54FBF090F0F0E067
:100AF200FBBB010BEA20E107C002120734D002EA75
:100B020030E03790F0F0E0FA6005BA022D8003027F
:100B1200090F12086A90F0F7E0FA700590F0F0E41D
:100B2200F090DE0EE4F090F0F0E0FA700790DE1143
:100B32007448F02290DE117440F022C020C0E0C060
:100B4200F0C082C083C002C003C004C005C006C09A
:100B520007C000C001C0D075D000C2E890DE02E03C
:100B6200FA90F0E6E04AF0120AB590DE06E0FA30BA
:100B7200E203120721D0D0D001D000D007D006D096
:100B820005D004D003D002D083D082D0F0D0E0D000
:100B9200203290DE0E7405F090DE11E0FA30E00AA9
:100BA20090F0E6E0FA20E5EA80F62290DE0E740587
:100BB200F090DE11E04401F090F0E0E0FAA3E0FBF7
:100BC20090F0E2EAF0A3EBF090F0E0E4F0A3F02280
:100BD20090F0E7E0FA70012290F0E0E0FAA3E0FB87
:100BE2004A700E90F0E2E0FAA3E0FBBA4009BB00C3
:100BF20006120B94020BAD22AA8290F0E7E0FB7082
:100C02000122C002120B94D00290DE2AEAF090F088
:100C1200E0E02401F0A3E03400F090F0E0E0FAA379
:100C2200E0FBBA4006BB0003020BAD2290F0E4E009
:100C3200FAA3E0FB4A704290DE0E7404F090DE14D8
:100C4200E0FA20E0047582FF2290DE17E0FB7A00D2
:100C520090DE16E0FC7D004202ED420390F0E4EAF1
:100C6200F0A3EBF0EA4B701190DE0E7404F090DE0C
:100C720014E054FEF07582FF2290F0E4E024FFFAC3
:100C8200A3E034FFFB90F0E4EAF0A3EBF090DE285F
:100C9200E0FA90F0E4E0FBA3E0FC4B700E90DE0E75
:100CA2007404F090DE14E0FB54FEF08A8222120CEF
:100CB2002EAA828A03BAFF0A90DE04E0FA20E4EE4A
:100CC20080F68B822243BE801208E9120721439AE2
:100CD2000290DE06E4F090DE04F090DE02F0C2E85C
:100CE2002290DE07E4F090DE09F090DE0BF0539ADA
:100CF200FD90DE06E4F090DE04F090DE02F053BEDA
:100D02007F2290F0F0E4F090F0E6F0020CC7AA82A5
:100D1200AB83ACF0C002C003C004120CB0AD82D0F1
:100D220004D003D0028D06BD0A0280118A828B8311
:100D32008CF0EE120DE1A3AA82AB8380D78A828B5C
:100D4200838CF0E4020DE1AA82AB83ACF08A828B41
:100D5200838CF0120DFAFD60188D820ABA00010B25
:100D6200C002C003C004120BFAD004D003D0028028
:100D7200DC020BD243FE02D29122C29153FEFD222B
:070E1B0000C2010000000805
:1000AA001201100102000020FEFF0A0010000102E6
:1000BA00030109024300020100C0320904000001E1
:1000CA000202010005240010010524010101042493
:1000DA00020205240600010705810308000A090433
:1000EA000100020A0000000705040240000007059B
:1000FA0085024000000403090410034A006F0062ED
:10010A000079004700500053001C034300430020BD
:10011A000042006F006F0074006C006F00610064A1
:10012A0000650072000E03300030003000300030ED
:04013A000031000090
:100D820085821085831185F012AD0DAE0EAF0FA8CE
:100D920010A911AA128D828E838FF0120DFAFBA375
:100DA200AD82AE83888289838AF0EB120DE1A3A81B
:100DB20082A983EB70DF8510828511838512F02270
:06017800E478FFF6D8FD5B
:100DC200AC82AD83AE0EAF0FBE0004EF600C1F0FFE
:0F0DD200E50D120DE1A3DEFADFF88C828D83228E
:100156007908E94400601B7A01900E1A78017593BC
:10016600F1E493F2A308B800020593D9F4DAF27524
:0201760093FFF5
:100DE10020F71030F6118883A88220F507F6A88332
:090DF10075830022F280F7F02264
:10017E007800E84400600A79007593F0E4F309D83A
:10018E00FC7801E84401600C790290F000E4F0A3E1
:04019E00D8FCD9FAB6
:0D014900758120120E16E58260030200860B
:100DFA0020F71430F6148883A88220F507E6A88322
:100E0A0075830022E280F7E49322E02275820022B1
:00000001FF
