:060000000201490216C2D4
:01000B0032C2
:0100130032BA
:01001B0032B2
:0100230032AA
:01002B0032A2
:030033000213F0C5
:01003B003292
:01004300328A
:01004B003282
:01005300327A
:01005B003272
:01006300326A
:03006B00021480FC
:01007300325A
:01007B003252
:0300830002178DD4
:0301A200020086D2
:0500860012042A80FEB7
:1001A500120100020200004051041547010001023E
:1001B50003010902200001010080FA090400000280
:1001C500FFFF010007058502F4010107050502404F
:1001D5000001040309042403220022002200220056
:1001E50022002200220022002200220022002200FA
:1001F50022002200220022002200260322002200E3
:1002050022002200220022002200220022002200D9
:1002150022002200220022002200220022002200C9
:10022500080322002200220000FF22AA82AB83D20B
:10023500908A828B83121F00C290850982850A836A
:10024500021F00AA82AB83C2AFD2909003E8C0021E
:10025500C003121F00C2909001F4121F00D003D0FA
:1002650002150BAC0BEC20E754EA30E024900019A2
:10027500C002C003C004121F00D290900226121FB4
:1002850000C290900019121F00D004D003D0028044
:1002950022900113C002C003C004121F00D2909027
:1002A5000032121F00C290900113121F00D004D01B
:1002B50003D002EBC313CA13CAFB1C80A8C29090DB
:1002C50003E8121F00D2AF2222E50D605190F17BA9
:1002D500740DF0539AFEE50D30E43D90F0AAE0FA76
:1002E500B40100E433FA242FFBE434F1FC8B828C57
:1002F50083E07024EA75F041A424ABFBE434F0FC00
:100305008B828C83C0021206B1D002EA242FF582BB
:10031500E434F1F5837401F0750D00439A012290E0
:10032500F0A7E0FA5302FD90F0A7EAF09000002252
:1003350022AA82AB83ACF0121FB7FD20E7030203AC
:10034500CB74012AFDE43BFE8C078D828E838FF0F2
:10035500121FB7FD600DBD0102801ABD0202802B80
:100365000203F6753602E4F53790F17B75F000125D
:1003750008410203F690DE00E0FD7E00753828E4B2
:10038500F5398D828E83120894806674022AFDE405
:100395003BFE8C078D828E838FF0121FB7FDA31253
:1003A5001FB7FE74062AFFE43BF88C018F82888311
:1003B50089F0121FB7F538A3121FB7F5398D828E54
:1003C50083120894802B74042AFAE43BFB8A828BFF
:1003D500838CF0121FB7FAA3121FB7FBEA540F6004
:1003E500101209AD90F099E0FA5302FD90F099EAE8
:1003F500F09000002243FD0FC280C281C282C283F9
:1004050043FE03C2902253BEFBE5BE30E6FB53C656
:10041500B8E5C620E6FB43BE04E5BE30E6FB221286
:10042500040B0203FA90F000740BF090F00174488D
:10043500F090F0027441F090F003744CF090F004E9
:10044500744CF090F005744FF090F0067443F09002
:10045500F0077443F090F0087431F090F0097431AE
:10046500F090F00A7431F090F00B7431F090F00CCC
:10047500E4F012042412083012149ED2AF1202CDF9
:100485001212F31202CE90F0001215F9750990754B
:100495000A0190019012023080E61201000202006A
:1004A5000040510415470100010203010902200023
:1004B50001010080FA0904000002FFFF01000705A1
:1004C5008502F40101070505024000010403090442
:1004D5002403220022002200220022002200220002
:1004E50022002200220022002200220022002200F7
:1004F50022002200260322002200220022002200E0
:1005050022002200220022002200220022002200D6
:1005150022002200220022002200080322002200DD
:10052500220000FF22AA82AB83D2908A828B83129B
:100535001F00C290852282852383021F00AA82ABF9
:1005450083C2AFD2909003E8C002C003121F00C25D
:10055500909001F4121F00D003D0021524AC24ECB6
:1005650020E754EA30E024900019C002C003C0041B
:10057500121F00D290900226121F00C290900019FF
:10058500121F00D004D003D0028022900113C002B4
:10059500C003C004121F00D290900032121F00C287
:1005A50090900113121F00D004D003D002EBC313A7
:1005B500CA13CAFB1C80A8C2909003E8121F00D280
:1005C500AF22AA827B0190DE0E7405F0E52A452B49
:1005D5007001227C647D0090F0A7E0FE30E02CECF9
:1005E5004D6028D290900002C002C003C004C0052F
:1005F500121F00C29090000A121F00D005D004D02F
:1006050003D00290F17C7401F080CCBB01307B00FB
:1006150090DE2A7440F0EAF0E529F0AE2A7F0090DA
:10062500DE2AEEF0E52BF0C374EF952A7401952BC5
:1006350050067CEF7D01801BAC2AAD2B8015C37461
:10064500F4952A7401952B50067CF47D018004AC49
:100655002AAD2BE52AC39CF52AE52B9DF52BAE2C5F
:10066500AF2DA82EEC4D60027401F960218E828FAA
:100675008388F0121FB7F9A3AE82AF838E2C8F2D1E
:10068500882E90DE2AE9F01CBCFF011D80D68E2C39
:100695008F2D882E90DE11E04401F090F0A7E0FC4C
:1006A50043040190F0A7ECF00205D122AA82AB83A6
:1006B5007C007D008A068B078E828F83E493F8A3E6
:1006C500AE82AF83E860070CBC00ED0D80EA8A2C92
:1006D5008B2D752E807529F08C2A8D2B7582FE0247
:1006E50005C785822F752C2F752D00752E40752910
:1006F500F1752A01E4F52B7582FE0205C785823066
:10070500858331752C30752D00752E407529F27550
:100715002A02E4F52B7582FE0205C78582328583A0
:100725003385F034F535752C32752D00752E4075F1
:1007350029F3752A04E4F52B7582FE0205C790DEC0
:1007450000E0FA700F90F0A9E0FABA010050051226
:1007550012F380EA7522C8E4F5239000C802052A41
:1007650053BE7F43BE8090DE01E054FEF075280045
:1007750075260075270075250090DE0EE4F090DEE5
:10078500107408F090DE137408F090F09AE4F0907D
:10079500F099F090F090F0A3F090F092740DF0A322
:1007A50074F0F0A3E4F090F095F0A3F090F0977456
:1007B50040F0A3E4F090DE0E7405F090DE10743F77
:1007C500F090DE137408F090DE15E04480F090DEC2
:1007D50012E04480F090F0A8E4F090F0A7F090F0DB
:1007E5009EF0A3F090F0A0744DF0A374F0F0A3E494
:1007F500F090F0A3F0A3F090F0A57440F0A3E4F01E
:1008050090DE0B74F7F090DE0774FFF090DE09744C
:10081500FFF0438C10538CFED2BD439A02758900BC
:10082500C2C5758B00C2E8439A022290F17B74021F
:10083500F043BE80120765D290D2AF22AA82AB8365
:10084500ACF090F09AE060287522E87523039003D8
:10085500E812052A7522E87523039003E812052A94
:100865007522E87523039003E812052A90FFFF22FD
:1008750090F08DEAF0A3EBF0A3ECF090F090E53664
:10088500F0A3E537F090F09A7401F090000022AAE9
:1008950082AB8390F09AE060287522E87523039077
:1008A50003E812052A7522E87523039003E812056B
:1008B5002A7522E87523039003E812052A90FFFFA5
:1008C500227C0090F08DEAF0A3EBF0A3ECF090F021
:1008D50090E538F0A3E539F090F09A7401F09000B6
:1008E5000022AA82AB83ACF090F0A8E0600490FFF0
:1008F500FF2290F09BEAF0A3EBF0A3ECF090F09EC2
:10090500E510F0A3E511F090F0A87401F090000057
:10091500227A0290DE0EE4F090F090E0FBA3E0FC7A
:10092500C374409BE49C50047D4080048B057A0A87
:100935008D067F00EBC39EFBEC9FFC90F090EBF0E7
:10094500A3ECF08D03EB60047C0180027C00EC607D
:100955003690F08DE0FCA3E0FDA3E0FE8C828D8354
:100965008EF0121FB790DE20F090F08DE0FCA3E032
:10097500FDA3E0FE0CBC00010D90F08DECF0A3EDA5
:10098500F0A3EEF01B80BE90DE11E04AF090F090EF
:10099500E0FAA3E0FB4A700590F09AE4F02290F0AB
:1009A5009A7402F07582002290F092E0FAA3E0FBBF
:1009B500A3E0FC90DE16E0FD7E0090F095EDF0A33F
:1009C500EEF090F099E0FD30E10A90F09A7403F0B2
:1009D50090FFFF2290F099E0FD43050290F099ED1C
:1009E500F090F095E0FDA3E0FEC374409DE49E50B9
:1009F5000990F0957440F0A3E4F090F095E0FDA324
:100A0500E0FEED4E60047F0180027F00EF601A90EA
:100A1500DE20E0FF8A828B838CF0121F9EA3AA82C0
:100A2500AB831DBDFF011E80D990F095E0FAA3E0D0
:100A3500FBC3EA9440EB9400500312033590F09504
:100A4500E0FAA3E08A82F5832290F0A0E0FAA3E021
:100A5500FBA3E0FC90DE0E7405F090DE17E0FE7D52
:100A65000090DE16E0FF7800EF2DFDE83EFE90F0E9
:100A7500A3EDF0A3EEF090F0A7E0FD30E11190DEDC
:100A850014E04420F090F0A87403F090FFFF22904A
:100A9500F0A7E0FD43050290F0A7EDF090F0A3E08C
:100AA500FDA3E0FE90F0A5E0FFA3E0F8C3EF9DE80D
:100AB5009E500890F0A3EFF0A3E8F090F0A3E0FDBE
:100AC500A3E0FEED4E60047F0180027F00EF601A17
:100AD50090DE2AE0FF8A828B838CF0121F9EA3AAE8
:100AE50082AB831DBDFF011E80D990DE14E054FE4C
:100AF500F090F0A3E0FAA3E08A82F583227536012F
:100B0500E4F53790002875F040020841AA82AB83CE
:100B1500ACF074022AFAE43BFB8A828B838CF012D8
:100B25001FB7FAA3121FB78A28228582117B9F7CE3
:100B3500047D8074012BFEE43CFF8D008E828F8343
:100B450088F0121FB7FEAF10BEFF028052EEB5113E
:100B55002BEF70047EFF80F01F8B828C838DF0124B
:100B65001FB72BFBE43CFC74012BF8E43CF98D0228
:100B7500888289838AF0121FB7FE80CC8B828C8392
:100B85008DF0121FB72BFBE43CFC74012BFAE43CFF
:100B9500F88D018A82888389F0121FB7FE80A98BA0
:100BA500828C838DF02285823A85833B85F03C7467
:100BB50002253AF544E4353BF545853C46854482B6
:100BC5008545838546F0121FB7F8A3121FB7F9892B
:100BD500427543007401B54206E4B54302801A74B8
:100BE50002B54206E4B54302802C7403B54207E41E
:100BF500B54303020C99020CB68982751000120BDD
:100C05002F85823D85833E85F03F121FB7FA8A40C6
:100C1500754100020CCF898288048C10120B2F8538
:100C2500823D85833E85F03F7402253DFCE4353EDB
:100C3500FDAE3F8C828D838EF0121FB7FC8C407504
:100C450041008544828545838546F0121FB7A3126E
:100C55001FB7FC7D007401253DFEE4353EFFAA3F2C
:100C65008E828F838AF0121FB7FE7A00ECB50606D6
:100C7500EDB5020280548544828545838546F01290
:100C85001FB7FAA3121FB7FB7524108A828B831234
:100C9500054280E2898288028A10120B2F85823DE7
:100CA50085833E85F03F121FB7FA8A407541008063
:100CB5001989828810120B2F85823D85833E85F028
:100CC5003F121FB7FA8A407541007406253AFAE4C7
:100CD500353BFBAC3C8A828B838CF0121FB7FAA3A1
:100CE500121FB7FBC3EA9540EB954150048A408B30
:100CF50041854036854137853D82853E83853FF078
:100D05001208418544828545838546F0121FB7A3A5
:100D1500121FB7FA7B00BA021BBB0018D2909000D5
:100D250002121F00C29090000A121F0090F0A9E065
:100D3500FA4401F02290DE0EE4F090DE11E0FA3084
:100D4500E40D90F09AE4F090DE11E0FB4480F0EAC7
:100D550030E22090DE11E4F090F17C7404F090F024
:100D65009AE4F07522C8E4F5239000C8C002120584
:100D75002AD00290F09AE0FBBB03157522F4752387
:100D8500019001F4C00212052AD00290F09AE4F015
:100D950090F09AE06003020F9BEA20E003020F9BAC
:100DA50090DE0EE4F07A007B477C007D40BA0800B7
:100DB500501690DE20E0FE8B828C838DF0121F9EF4
:100DC500A3AB82AC830A80E5E547FA20E703020E70
:100DD500BD74605AFB6015BB2003020F85BB400341
:100DE500020E9EBB6003020EAA020F85741F5AFBFA
:100DF5007046AC48BC0002801CBC06028005BC08DD
:100E05002B800C90004775F040120BAB020F85123A
:100E15000B02020F85E4F54FF550753602E4F53700
:100E250090004F75F040120841020F8590004775FC
:100E3500F0401206B0020F85BB011AAC48BC000396
:100E4500020F85BC0A03020F8590004775F040121A
:100E550006B0020F85BB022DAC48BC00028008BC61
:100E65001203020F858012753602E4F537901FD7FD
:100E750075F080120841020F8590004775F0401209
:100E850006B0020F8590004775F0401206B090DE5F
:100E950011E0FC4420F0020F8590004775F04012E8
:100EA5000336020F8590DE11E04420F0900047756F
:100EB500F0401206B0020F8574605AFC6015BC2024
:100EC50003020F85BC4003020F69BC6003020F7467
:100ED500020F85741F5AFB703FAA48BA0103020F1F
:100EE50085BA0303020F85BA0502800BBA07030210
:100EF5000F85BA0917800990DE00E549F0020F85D4
:100F050090004775F040120B11020F859000477550
:100F1500F0401206B0020F85BB011DAA48BA0103B5
:100F2500020F85BA03028058BA1102805390004718
:100F350075F0401206B08048BB0217AA48BA0102F4
:100F4500803EBA0302803990004775F0401206B022
:100F5500802E90DE11E04420F090004775F040129D
:100F650006B0801C90004775F04012033680119042
:100F7500004775F0401206B090DE11E0FA4420F00B
:100F850090DE11E0FA4440F0E54D454E700890DEE4
:100F950011E0FA4408F090F09AE0FABA0103120958
:100FA5001690F09AE0FABA02030209AD2290DE0E1D
:100FB5007405F090F0A7E0FA30E11490F0A87403FE
:100FC500F090DE14E04420F090F17C7405F022905E
:100FD500F0A7E0FA43020290F0A7EAF090DE17E0EE
:100FE500FB7A0090DE16E0FC7D00EC2AF553ED3B24
:100FF500F554C374409553E49554501990F0A87472
:1010050003F090DE14E04420F07522C8E4F5239047
:10101500012C02052A90F0A0E0FCA3E0FDA3E0FE70
:101025008C078D008F59885AA953AA54E94A600440
:101035007B0180027B00EB601A90DE2AE0FB85597C
:1010450082855A83F0A385825985835A19B9FF0190
:101055001A80D990F0A3E553F0A3E554F0C3E55306
:101065009408E554940050030212E574042CFAE444
:101075003DFB8E018A828B8389F0121FB7F556746A
:10108500052CFBE43DF98E028B8289838AF0121FC1
:10109500B7F55574062CFFE43DF88F828883E0FB95
:1010A500A38B53755400E0FBA3AF82A8838B047B0D
:1010B50000EB2553F553EC3554F55474FFB5560242
:1010C50080030212E07480B55502802B7481B555FA
:1010D500030211587482B555030212467483B5553F
:1010E5000302125E7484B555030211D97485B55592
:1010F500030212780212BB8F828883E0FBA38B5315
:10110500755400E0FBA3AF82A8838B047B00EB251D
:1011150053F553EC3554F5548F828883E0FBA38B4C
:1011250051755200E0FE7D00ED2551F551EE355229
:10113500F55285515785525885572C85582D752E52
:101145000085552985532A85542B8556821205C756
:101155000212D18F828883E0F9A38951755200E08C
:10116500F9A3AF82A88389037900E92551F551EBED
:101175003552F5528551578552588F038804855746
:101185005985585A755102E4F552C3E5519553E511
:1011950052955450248B828C83E0FAA3AB82AC83A6
:1011A500855982855A83EAF0A385825985835A0534
:1011B50051E4B551D5055280D1752CDA752D1F75C1
:1011C5002E80855529752A01E4F52B855682120551
:1011D500C70212D18F828883E0FAA38A5175520023
:1011E500E0FAA3AF82A8838A037A00EA2551F55174
:1011F500EB3552F5528551578552588F0288037C3D
:10120500027900C3EC9553E99554501A8A828B8371
:10121500E0FDA3AA82AB83855782855883EDF00C48
:10122500BC00E00980DD752CDC752D1F752E8085D1
:101235005529752A01E4F52B8556821205C7021238
:10124500D18F2C882D752E0085552985532A8554D7
:101255002B8556821205C78073752CDD752D1F757C
:101265002E80855529752A0DE4F52B8556821205A4
:10127500C780598F828883E0FAA3AF82A883BA0119
:1012850002800ABA0202801FBA032B800DC007C074
:101295000012169ED000D007801CC007C000121691
:1012A500B0D000D007800F8F828883C007C000129E
:1012B50015F9D000D0078F2C882D752E008555295E
:1012C50085532A85542B8556821205C790F0A7E0D1
:1012D500FA5302FD90F0A7EAF0800B120324800672
:1012E50090F17C7407F090DE14E054FEF022E526C0
:1012F50030E411120D3A74E75526FA740F5527FBA1
:101305008A268B27AA26AB27EA30E01175250174BA
:10131500FE5526FCAD278C268D2743BE01EA5406D3
:10132500602C90F17B740AF075250274FD5526FA40
:10133500AB278A268B2790DE01E04404F090000855
:10134500121F0090DE01E0FA54FBF0752500E5263A
:1013550020E2057403B5251412076590F17B740B23
:10136500F074FB5526FAAB278A268B27E52730E64E
:101375003590F17B740CF090F0A8E0FABA0319905F
:10138500F17C7408F090F0A8E4F090DE0E7405F09E
:1013950090DE14E0FA549FF0120FB2AA2674BF55DE
:1013A50027FB8A268B27AA26AB27EA54E07005EB94
:1013B50054BD601E90F17C7409F07524108A828BEF
:1013C5008312054274E05526FA74BD5527FB8A261B
:1013D5008B2774FFB52513D290900002121F00C20F
:1013E5009090000A121F0075250022C0E0C082C03F
:1013F50083C002C003C004C005C0D075D000E5BEDF
:1014050030E6FBC2AF90DE06E0FA7B00E52642023D
:10141500E52742038A268B2790DE02E0FCE4C454CC
:10142500F0CCC4CC6CCC54F0CC6CFDEC4202ED425B
:10143500038A268B2790DE04E025E0FDE4FC4202CA
:10144500ED42038A26EBF52730E11890F0A7E0FA84
:101455005302FE90F0A7EAF0AA2674FD5527FB8AF1
:10146500268B27758B00C2E8D2AFD0D0D005D0042B
:10147500D003D002D083D082D0E032C0E0E5BE30C8
:10148500E6FBC2AFE58930E70375250253BEFC755F
:091495008900C2C5D2AFD0E032DB
:101FD700000000300000554E494D504C454D454ED0
:041FE7005445440019
:10149E00751000751182E4F51290F0AB75F0001224
:1014AE001F7F751000751141E4F51290F13175F042
:1014BE0000121F7F90DF2FE4F090DF30F090DF31CD
:1014CE00F090DF00740CF090DF01744EF090DF02AC
:1014DE0074FFF090DF03E4F090DF047401F090DF0E
:1014EE0005E4F090DF06F090DF077406F090DF0859
:1014FE00E4F090DF097424F090DF0A743AF090DF84
:10150E000B74F1F090DF0C74CAF090DF0D74A3F041
:10151E0090DF0E7403F090DF0F7423F090DF1074E1
:10152E0011F090DF117436F090DF127407F090DF37
:10153E00137430F090DF147418F090DF157417F0F8
:10154E0090DF16746CF090DF177403F090DF187450
:10155E0040F090DF197491F090DF1A7456F090DF1E
:10156E001B7410F090DF1C74E9F090DF1D742AF0EC
:10157E0090DF1EE4F090DF1F741FF090DF2374885D
:10158E00F090DF247431F090DF257409F090DF2E97
:10159E007450F0D2A87591FF75E900750D00439A4D
:1015AE00010215B275E10490DF3BE0FA30E0F890ED
:1015BE00F1727403F0227A007B00C3EA94DCEB94A0
:1015CE0005502490DF3CE0FC545060049000012252
:1015DE00900032C002C003121F27D003D002743213
:1015EE002AFAE43BFB80D390000022AA82AB83C090
:1015FE0002C0031215B2751000751141E4F5129078
:10160E00F13175F000121F7FD003D0028A108B11BA
:10161E0075120090F13175F000121F3F90F19EE4AB
:10162E00F075E10290DF3BE0FA540D60F790DF3C7D
:10163E00E0FA545060F775E10390DF3BE0FA541383
:10164E0060F775820022751000751141E4F5129055
:10165E00F0AB75F000121F7F90F12DE4F090F12E9B
:10166E00F090F12FF090F1307401F090F0AAE4F0C8
:10167E00539BFC53E9EF75E102439110225391EF16
:10168E001215B243D68153D1FE539BFC53E9EF2280
:10169E0090F172E0FABA01012290F1727401F00237
:1016AE00165490F172E0FABA010912168B90F1728B
:1016BE007403F022C0E0C0F0C082C083C002C00339
:1016CE00C004C005C006C007C0D075D00090F17C24
:1016DE007411F090DF3BE0FABA0D5890F0AAE07565
:1016EE00F041A424ABFAE434F0FB90F0AAE0242DF0
:1016FE00FCE434F1FD8C828D83E0FE04FF8C828D40
:10170E0083F0EE2AF582E43BF583E5D9F090F0AA5A
:10171E00E0242DF582E434F1F583E0FABA4100407D
:10172E004590F0AAE0FA242DF582E434F1F583E435
:10173E00F0803390DF3BE0FABA132B90F19EE02459
:10174E0031FAE434F1FB8A828B83E0601990F19ECA
:10175E00E0FA90F19EE02401F0EA2431F582E434BF
:10176E00F1F583E0F5D9C289D0D0D007D006D005E7
:10177E00D004D003D002D083D082D0F0D0E032C0DB
:10178E0020C0E0C0F0C082C083C002C003C004C04D
:10179E0005C006C007C000C001C0D075D00090F1D2
:1017AE007C7410F0539BFCE5E9420DE5E930E60B45
:1017BE00D28312168B12165402187FE5E930E70613
:1017CE001215B202187FE5E920E40302187F90F1AA
:1017DE0072E0FABA020643D68102187F90F0AAE0B0
:1017EE00FAB40100E433242FF582E434F1F583E0FA
:1017FE00FABA014A90F0AAE0FAB40100E43375F0A7
:10180E0041A424ABFAE434F0FB7C00751000751192
:10181E0041E4F5128A828B838CF0121F7F90F0AA1E
:10182E00E06401F090F0AAE0FA242DF582E434F1A0
:10183E00F583E4F090F12FF090F130F0803390F0DA
:10184E00AAE075F041A424ABFAE434F0FB7C0075F9
:10185E001000751141E4F5128A828B838CF0121FF1
:10186E007F90F0AAE0FA242DF582E434F1F583E4BA
:10187E00F075E900D0D0D001D000D007D006D00549
:10188E00D004D003D002D083D082D0F0D0E0D020CC
:01189E003217
:011FEB0000F5
:10189F0090DE077421F090DE097410F090DE0B7467
:1018AF0004F02290DE0EE4F090DE11E0FA30E10158
:1018BF002290F191E0FA90F198F0EA24DF5006902F
:1018CF00F1987420F090F1997402F090F198E0FB88
:1018DF00BB2002800B90F199740AF090F18DE4F027
:1018EF0090F198E0FB90F191EAC39BF08B028A0391
:1018FF001AEB602A90F18EE0FBA3E0FCA3E0FD8BD6
:10190F00828C838DF0121FB7FE90F18E74012BF035
:10191F00E43CA3F0A3EDF090DE20EEF080D090DE5B
:10192F000EE4F090F199E090DE11F022AA82AB83E1
:10193F008B0490F19A74AAF0A37400F0A37480F052
:10194F0090F19AE0FBA3E0FDA3E0FE8B828D838EE6
:10195F00F0121FB7FF700122C00774012BF8E43D8E
:10196F00F98E07888289838FF0121FB7F8B50402AA
:10197F008004D007803ED0078A001AE87036BC0278
:10198F001774022BFBE43DFD8B828D838EF0121FAB
:10199F00B7FB90F191F0800590F191EFF090F19AF3
:1019AF00E0FBA3E0FDA3E0FE90F18EEBF0A3EDF0E2
:1019BF00A3EEF02290F19AE0FBA3E0FDA3E0FE8BF3
:1019CF00828D838EF0121FB7FF90F19AEF2BF0E408
:1019DF003DA3F0A3EEF002194F90DE0EE4F090DE7F
:1019EF0016E0FA90F19DF090F194E0FBC39A500548
:1019FF0090F19DEBF090F19DE0FA90F194EBC39A8A
:101A0F00F08A031AEB601F90F195E0FBA3E0FC90C6
:101A1F00DE20E0FD8B828C83F090F19574012BF02A
:101A2F00E43CA3F080DB22AA8290F191E0FB90F1DD
:101A3F009104F0EB2492F582E434F1F583EAF0227D
:101A4F00AA8290F1847401F090DE0074804AF090C5
:101A5F00DE00E0FA20E7F82290DE0E7405F090DE4B
:101A6F00107408F090DE12E04401F090DE0E740462
:101A7F00F090DE137408F090DE157401F02290F1EF
:101A8F00957485F0A374F1F090F1947408F0121925
:101A9F00E890F194E0FA60012290F185E0FA30E7E6
:101AAF001A90F18BE0FBA3E0FC4B600890F18D7472
:101ABF0001F0801F90F18DE4F0801890F18BE0FB26
:101ACF00A3E0FC4B600890F18D7402F0800590F15B
:101ADF008DE4F090DE0EE4F090F18DE0FB70089055
:101AEF00DE117448F0800690DE117440F090F18E94
:101AFF007492F0A374F1F0A3E4F090F191F074609C
:101B0F005AFB6009BB2003021BD8021C0C53021F97
:101B1F00BA0002800FBA0103021B9FBA0203021B15
:101B2F00C1021C0C90F186E0FA6017BA0502802101
:101B3F00BA0602802BBA08028038BA0902803F0227
:101B4F001C0C758200121A36758200121A36021C8E
:101B5F000C90F187E0FAA3E08A82121A4F021C0C54
:101B6F0090F187E0FAA3E0FB8A828B8312193B0284
:101B7F001C0C90F197E0F582121A36021C0C90F1B2
:101B8F0087E0FAA3E090F197EAF0121A67021C0CB3
:101B9F0090F186E0FA6005BA0A63800E7582001232
:101BAF001A36758200121A368053758200121A3651
:101BBF00804B90F186E0FA60028042758200121A23
:101BCF0036758200121A36803490F186E0FABA2008
:101BDF00028005BA2127801290F1947407F090F1DA
:101BEF0095749FF0A374F1F0801390F1917407F046
:101BFF0090F18E749FF0A374F1F0A3E4F090F18D47
:101C0F00E0FABA02012290F18BE0FAA3E0FB90F127
:101C1F0091E0FC7D00C3EA9CEB9D500590F191EAA9
:101C2F00F00218B290F183E0FA20E0012290F183E4
:101C3F00E054FEF090DE0EE4F090DE11E0FA30E4B6
:101C4F000B90F18DE4F090DE117480F0EA30E20D2C
:101C5F0090F18DE4F090DE11E0FB54FBF090F18DEC
:101C6F00E0FBBB010BEA20E107C0021218B2D00261
:101C7F00EA30E03790F18DE0FA6005BA022D80036B
:101C8F00021A8D1219E890F194E0FA700590F18D17
:101C9F00E4F090DE0EE4F090F18DE0FA700790DE44
:101CAF00117448F02290DE117440F022C020C0E081
:101CBF00C0F0C082C083C002C003C004C005C0060C
:101CCF00C007C000C001C0D075D000C2E890DE02CE
:101CDF00E0FA90F183E04AF0121C3390DE06E0FA4E
:101CEF0030E20312189FD0D0D001D000D007D00619
:101CFF00D005D004D003D002D083D082D0F0D0E072
:101D0F00D0203290DE0E7405F090DE11E0FA30E054
:101D1F000A90F183E0FA20E5EA80F62290DE0E7455
:101D2F0005F090DE11E04401F090F17DE0FAA3E0C0
:101D3F00FB90F17FEAF0A3EBF090F17DE4F0A3F0DC
:101D4F002290F184E0FA70012290F17DE0FAA3E095
:101D5F00FB4A700E90F17FE0FAA3E0FBBA4009BB9B
:101D6F000006121D12021D2B22AA8290F184E0FBA5
:101D7F00700122C002121D12D00290DE2AEAF090EA
:101D8F00F17DE02401F0A3E03400F090F17DE0FA62
:101D9F00A3E0FBBA4006BB0003021D2B2290F1818A
:101DAF00E0FAA3E0FB4A704290DE0E7404F090DE7E
:101DBF0014E0FA20E0047582FF2290DE17E0FB7A30
:101DCF000090DE16E0FC7D004202ED420390F181AF
:101DDF00EAF0A3EBF0EA4B701190DE0E7404F09072
:101DEF00DE14E054FEF07582FF2290F181E024FFB3
:101DFF00FAA3E034FFFB90F181EAF0A3EBF090DE61
:101E0F0028E0FA90F181E0FBA3E0FC4B700E90DE2E
:101E1F000E7404F090DE14E0FB54FEF08A8222125E
:101E2F001DACAA828A03BAFF0A90DE04E0FA20E40E
:101E3F00EE80F68B822243BE80121A6712189F43E0
:101E4F009A0290DE06E4F090DE04F090DE02F0C21B
:101E5F00E82290DE07E4F090DE09F090DE0BF053FD
:101E6F009AFD90DE06E4F090DE04F090DE02F0536F
:101E7F00BE7F2290F18DE4F090F183F0021E45AA0F
:101E8F0082AB83ACF0C002C003C004121E2EAD8221
:101E9F00D004D003D0028D06BD0A0280118A828B36
:101EAF00838CF0EE121F9EA3AA82AB8380D78A8207
:101EBF008B838CF0E4021F9EAA82AB83ACF08A82E4
:101ECF008B838CF0121FB7FD60188D820ABA000148
:101EDF000BC002C003C004121D78D004D003D0027F
:101EEF0080DC021D5043FE02D29122C29153FEFDAF
:011EFF0022C0
:071FEC0000C2010000000823
:1000AA001201100102000020FEFF0A0010000102E6
:1000BA00030109024300020100C0320904000001E1
:1000CA000202010005240010010524010101042493
:1000DA00020205240600010705810308000A090433
:1000EA000100020A0000000705040240000007059B
:1000FA0085024000000403090410034A006F0062ED
:10010A000079004700500053001C034300430020BD
:10011A000042006F006F0074006C006F00610064A1
:10012A0000650072000E03300030003000300030ED
:04013A000031000090
:101F0000AA82AB831ABAFF011BC3E49A74808BF0D8
:101F100063F08095F0500F7CB07D041CBCFF011D68
:101F2000EC4D70F780DE22AA82AB831ABAFF011B48
:101F3000C3E49A74808BF063F08095F040ED2285C5
:101F4000821385831485F015AD10AE11AF12A8135E
:101F5000A914AA158D828E838FF0121FB7FBA3AD33
:101F600082AE83888289838AF0EB121F9EA3A882A7
:0F1F7000A983EB70DF8513828514838515F0221A
:06017800E478FFF6D8FD5B
:101F7F00AC82AD83AE11AF12BE0004EF600C1F0F29
:0F1F8F00E510121F9EA3DEFADFF88C828D8322ED
:100156007908E94400601B7A01901FEB789E75933D
:10016600F1E493F2A308B800020593D9F4DAF27524
:0201760093FFF5
:101F9E0020F71030F6118883A88220F507F6A88363
:091FAE0075830022F280F7F02295
:10017E007800E84400600A79007593F0E4F309D83A
:10018E00FC789EE84401600C790290F000E4F0A344
:04019E00D8FCD9FAB6
:0D01490075815A121FD3E582600302008603
:101FB70020F71430F6148883A88220F507E6A88353
:101FC70075830022E280F7E49322E02275820022E3
:00000001FF
