:060000000201490204D7D1
:01000B0032C2
:0100130032BA
:01001B0032B2
:0100230032AA
:01002B0032A2
:03003300020B0FAE
:01003B003292
:01004300328A
:01004B003282
:01005300327A
:01005B003272
:01006300326A
:01006B003262
:01007300325A
:01007B003252
:030083000205A2D1
:0301A200020086D2
:0500860012023A80FEA9
:1001A50022E50A605890F0DE740DF0539AFEE50AD8
:1001B50030E44490F00DE0FAB40100E433FA2492FF
:1001C500FBE434F0FC8B828C83E0702BEA75F04104
:1001D500A4240EFBE434F0FC7D008B828C838DF02F
:1001E500C002120D1B120BA4D002EA2492F582E480
:1001F50034F0F5837401F0750A00439A01229000EA
:100205000022229000002243FD0FC280C281C282DB
:10021500C28343FE032253BEFBE5BE30E6FB53C655
:10022500B8E5C620E6FB43BE04E5BE30E6FB221278
:10023500021B02020C90F000740BF090F001744860
:10024500F090F0027441F090F003744CF090F004DB
:10025500744CF090F005744FF090F0067443F090F4
:10026500F0077443F090F0087431F090F0097431A0
:10027500F090F00A7431F090F00B7431F090F00CBE
:10028500E4F0120234120CD61202B3120D48D2AFAA
:100295001201A51201A690F00012040ED290900151
:1002A500901206B4C2909001901206B480E5750DC7
:1002B50000750E82E4F50F90F00E75F000121DA08A
:1002C500750D00750E41E4F50F90F09475F0001270
:1002D5001DA090DF2FE4F090DF30F090DF31F0903B
:1002E500DF00740CF090DF01744EF090DF0274FFB4
:1002F500F090DF03E4F090DF047401F090DF05E493
:10030500F090DF06F090DF077406F090DF08E4F068
:1003150090DF097424F090DF0A743AF090DF0B74D3
:10032500F1F090DF0C74CAF090DF0D74A3F090DF4C
:100335000E7403F090DF0F7423F090DF107411F04A
:1003450090DF117436F090DF127407F090DF1374AC
:1003550030F090DF147418F090DF157417F090DF0B
:1003650016746CF090DF177403F090DF187440F08A
:1003750090DF197491F090DF1A7456F090DF1B74BA
:1003850010F090DF1C74E9F090DF1D742AF090DF07
:100395001EE4F090DF1F741FF090DF237488F09047
:1003A500DF247431F090DF257409F090DF2E74504E
:1003B500F0D2A87591FF75E900750A00439A01020C
:1003C50003C775E10490DF3BE0FA30E0F890F0D523
:1003D5007403F0227A007B00C3EA94DCEB940550A9
:1003E5002490DF3CE0FC5450600490000122900012
:1003F50032C002C0031206DBD003D00274322AFADF
:10040500E43BFB80D390000022AA82AB83C002C0EC
:10041500031203C7750D00750E41E4F50F90F094B6
:1004250075F000121DA0D003D0028A0D8B0E750F3A
:100435000090F09475F000121D6090F19EE4F07547
:10044500E10290DF3BE0FA540D60F790DF3CE0FA03
:10045500545060F775E10390DF3BE0FA541360F701
:1004650075820022750D00750E41E4F50F90F00EB2
:1004750075F000121DA090F090E4F090F091F090CE
:10048500F092F090F0937401F090F00DE4F0539B2E
:10049500FC53E9EF75E102439110225391EF1203EA
:1004A500C743D68153D1FE539BFC53E9EF2290F00D
:1004B500D5E0FABA01012290F0D57401F002046981
:1004C50090F0D5E0FABA01091204A090F0D57403B2
:1004D500F022C0E0C0F0C082C083C002C003C004E7
:1004E500C005C006C007C0D075D00090F0DF7411FC
:1004F500F090DF3BE0FABA0D5890F00DE075F04151
:10050500A4240EFAE434F0FB90F00DE02490FCE412
:1005150034F0FD8C828D83E0FE04FF8C828D83F0A8
:10052500EE2AF582E43BF583E5D9F090F00DE02461
:1005350090F582E434F0F583E0FABA410040459045
:10054500F00DE0FA2490F582E434F0F583E4F080D0
:100555003390DF3BE0FABA132B90F19EE02494FA36
:10056500E434F0FB8A828B83E0601990F19EE0FA17
:1005750090F19EE02401F0EA2494F582E434F0F54C
:1005850083E0F5D9C289D0D0D007D006D005D004F4
:10059500D003D002D083D082D0F0D0E032C020C0CA
:1005A500E0C0F0C082C083C002C003C004C005C063
:1005B50006C007C000C001C0D075D00090F0DF7440
:1005C50010F0539BFCE5E9420AE5E930E60BD283DE
:1005D5001204A0120469020694E5E930E706120345
:1005E500C7020694E5E920E40302069490F0D5E0FD
:1005F500FABA020643D68102069490F00DE0FAB4E9
:100605000100E4332492F582E434F0F583E0FABA8C
:10061500014A90F00DE0FAB40100E43375F041A40D
:10062500240EFAE434F0FB7C00750D00750E41E4F0
:10063500F50F8A828B838CF0121DA090F00DE0647B
:1006450001F090F00DE0FA2490F582E434F0F583A2
:10065500E4F090F092F090F093F0803390F00DE09C
:1006650075F041A4240EFAE434F0FB7C00750D000E
:10067500750E41E4F50F8A828B838CF0121DA090D4
:10068500F00DE0FA2490F582E434F0F583E4F0759A
:10069500E900D0D0D001D000D007D006D005D004D5
:0F06A500D003D002D083D082D0F0D0E0D020326A
:011E0C0000D5
:1006B400AA82AB831ABAFF011BC3E49A74808BF03D
:1006C40063F08095F0500F7CB07D041CBCFF011DCD
:1006D400EC4D70F780DE22AA82AB831ABAFF011BAD
:1006E400C3E49A74808BF063F08095F040ED22901F
:1006F400DE077421F090DE097410F090DE0B7404B0
:10070400F02290DE0EE4F090DE11E0FA30E10122F6
:1007140090F0F4E0FA90F0FBF0EA24DF500690F059
:10072400FB7420F090F0FC7402F090F0FBE0FBBB53
:100734002002800B90F0FC740AF090F0F0E4F0904A
:10074400F0FBE0FB90F0F4EAC39BF08B028A031AFF
:10075400EB602A90F0F1E0FBA3E0FCA3E0FD8B82C8
:100764008C838DF0121DD8FE90F0F174012BF0E40F
:100774003CA3F0A3EDF090DE20EEF080D090DE0EEE
:10078400E4F090F0FCE090DE11F022AA82AB838BBF
:100794000490F0FD74AAF0A37400F0A37480F090A8
:1007A400F0FDE0FBA3E0FDA3E0FE8B828D838EF0E1
:1007B400121DD8FF700122C00774012BF8E43DF923
:1007C4008E07888289838FF0121DD8F8B5040280C1
:1007D40004D007803ED0078A001AE87036BC02179E
:1007E40074022BFBE43DFD8B828D838EF0121DD8A9
:1007F400FB90F0F4F0800590F0F4EFF090F0FDE061
:10080400FBA3E0FDA3E0FE90F0F1EBF0A3EDF0A379
:10081400EEF02290F0FDE0FBA3E0FDA3E0FE8B826E
:100824008D838EF0121DD8FF90F0FDEF2BF0E43D88
:10083400A3F0A3EEF00207A390DE0EE4F090DE1620
:10084400E0FA90F100F090F0F7E0FBC39A500590C5
:10085400F100EBF090F100E0FA90F0F7EBC39AF0BE
:100864008A031AEB601F90F0F8E0FBA3E0FC90DE33
:1008740020E0FD8B828C83F090F0F874012BF0E47F
:100884003CA3F080DB22AA8290F0F4E0FB90F0F429
:1008940004F0EB24F5F582E434F0F583EAF022AABF
:1008A4008290F0E77401F090DE0074804AF090DEEC
:1008B40000E0FA20E7F82290DE0E7405F090DE10D6
:1008C4007408F090DE12E04401F090DE0E7404F03F
:1008D40090DE137408F090DE157401F02290F0F8A5
:1008E40074E8F0A374F0F090F0F77408F012083C88
:1008F40090F0F7E0FA60012290F0E8E0FA30E71AAD
:1009040090F0EEE0FBA3E0FC4B600890F0F0740183
:10091400F0801F90F0F0E4F0801890F0EEE0FBA37C
:10092400E0FC4B600890F0F07402F0800590F0F069
:10093400E4F090DE0EE4F090F0F0E0FB700890DE5E
:10094400117448F0800690DE117440F090F0F17458
:10095400F5F0A374F0F0A3E4F090F0F4F074605AAE
:10096400FB6009BB2003020A2C020A6053021FBA6F
:100974000002800FBA01030209F3BA0203020A1546
:10098400020A6090F0E9E0FA6017BA05028021BA21
:100994000602802BBA08028038BA0902803F020A94
:1009A4006075820012088A75820012088A020A6041
:1009B40090F0EAE0FAA3E08A821208A3020A6090A7
:1009C400F0EAE0FAA3E0FB8A828B8312078F020A23
:1009D4006090F0FAE0F58212088A020A6090F0EA68
:1009E400E0FAA3E090F0FAEAF01208BB020A609081
:1009F400F0E9E0FA6005BA0A63800E758200120815
:100A04008A75820012088A805375820012088A80CF
:100A14004B90F0E9E0FA6002804275820012088A85
:100A240075820012088A803490F0E9E0FABA200254
:100A34008005BA2127801290F0F77407F090F0F83F
:100A4400749FF0A374F1F0801390F0F47407F090A5
:100A5400F0F1749FF0A374F1F0A3E4F090F0F0E0EF
:100A6400FABA02012290F0EEE0FAA3E0FB90F0F46F
:100A7400E0FC7D00C3EA9CEB9D500590F0F4EAF0A5
:100A840002070690F0E6E0FA20E0012290F0E6E0AA
:100A940054FEF090DE0EE4F090DE11E0FA30E40B48
:100AA40090F0F0E4F090DE117480F0EA30E20D9002
:100AB400F0F0E4F090DE11E0FB54FBF090F0F0E095
:100AC400FBBB010BEA20E107C002120706D002EAD1
:100AD40030E03790F0F0E0FA6005BA022D800302AE
:100AE40008E112083C90F0F7E0FA700590F0F0E4A9
:100AF400F090DE0EE4F090F0F0E0FA700790DE1172
:100B04007448F02290DE117440F022C020C0E0C08E
:100B1400F0C082C083C002C003C004C005C006C0C8
:100B240007C000C001C0D075D000C2E890DE02E06A
:100B3400FA90F0E6E04AF0120A8790DE06E0FA3016
:100B4400E2031206F3D0D0D001D000D007D006D0F3
:100B540005D004D003D002D083D082D0F0D0E0D02E
:100B6400203290DE0E7405F090DE11E0FA30E00AD7
:100B740090F0E6E0FA20E5EA80F62290DE0E7405B5
:100B8400F090DE11E04401F090F0E0E0FAA3E0FB25
:100B940090F0E2EAF0A3EBF090F0E0E4F0A3F022AE
:100BA40090F0E7E0FA70012290F0E0E0FAA3E0FBB5
:100BB4004A700E90F0E2E0FAA3E0FBBA4009BB00F1
:100BC40006120B66020B7F22AA8290F0E7E0FB700C
:100BD4000122C002120B66D00290DE2AEAF090F0E5
:100BE400E0E02401F0A3E03400F090F0E0E0FAA3A8
:100BF400E0FBBA4006BB0003020B7F2290F0E4E066
:100C0400FAA3E0FB4A704290DE0E7404F090DE1406
:100C1400E0FA20E0047582FF2290DE17E0FB7A0000
:100C240090DE16E0FC7D004202ED420390F0E4EA1F
:100C3400F0A3EBF0EA4B701190DE0E7404F090DE3A
:100C440014E054FEF07582FF2290F0E4E024FFFAF1
:100C5400A3E034FFFB90F0E4EAF0A3EBF090DE288D
:100C6400E0FA90F0E4E0FBA3E0FC4B700E90DE0EA3
:100C74007404F090DE14E0FB54FEF08A8222120C1D
:100C840000AA828A03BAFF0A90DE04E0FA20E4EEA6
:100C940080F68B822243BE801208BB1206F3439A6D
:100CA4000290DE06E4F090DE04F090DE02F0C2E88A
:100CB4002290DE07E4F090DE09F090DE0BF0539A08
:100CC400FD90DE06E4F090DE04F090DE02F053BE08
:100CD4007F2290F0F0E4F090F0E6F0020C99AA8202
:100CE400AB83ACF0C002C003C004120C82AD82D04E
:100CF40004D003D0028D06BD0A0280118A828B8340
:100D04008CF0EE121DBFA3AA82AB8380D78A828B9C
:100D1400838CF0E4021DBFAA82AB83ACF08A828B81
:100D2400838CF0121DD8FD60188D820ABA00010B65
:100D3400C002C003C004120BCCD004D003D0028084
:100D4400DC020BA443FE02D29122C29153FEFD2287
:071E0D0000C2010000000803
:1000AA001201100102000020FEFF0A0010000102E6
:1000BA00030109024300020100C0320904000001E1
:1000CA000202010005240010010524010101042493
:1000DA00020205240600010705810308000A090433
:1000EA000100020A0000000705040240000007059B
:1000FA0085024000000403090410034A006F0062ED
:10010A000079004700500053001C034300430020BD
:10011A000042006F006F0074006C006F00610064A1
:10012A0000650072000E03300030003000300030ED
:04013A000031000090
:100D54001201000202000040510415470100010283
:100D640003010902200001010080FA0904000002C5
:100D7400FFFF010007058502F40101070505024094
:100D8400000104030904240322002200220022009B
:100D9400220022002200220022002200220022003F
:100DA4002200220022002200220026032200220028
:100DB400220022002200220022002200220022001F
:100DC400220022002200220022002200220022000F
:100DD400080322002200220000FF22AA82AB83C261
:100DE400AFD2909003E8C002C0031206B4C2909040
:100DF40001F41206B4D003D0021522AC22EC20E791
:100E040054EA30E024900019C002C003C004120662
:100E1400B4D2909002261206B4C290900019120621
:100E2400B4D004D003D0028022900113C002C003C6
:100E3400C0041206B4D2909000321206B4C290904C
:100E440001131206B4D004D003D002EBC313CA13A7
:100E5400CAFB1C80A8C2909003E81206B4D2AF2249
:100E6400AA827B0190DE0E7405F0E5284529700105
:100E7400227C647D0090F19BE0FE30E02CEC4D6020
:100E840028D290900002C002C003C004C00512061C
:100E9400B4C29090000A1206B4D005D004D003D096
:100EA4000290F0DF7401F080CCBB01307B0090DE57
:100EB4002A7440F0EAF0E527F0AE287F0090DE2A9D
:100EC400EEF0E529F0C374EF9528740195295006D6
:100ED4007CEF7D01801BAC28AD298015C374F4958B
:100EE400287401952950067CF47D018004AC28AD5A
:100EF40029E528C39CF528E5299DF529AE2AAF2BC1
:100F0400A82CEC4D60027401F960218E828F8388D5
:100F1400F0121DD8F9A3AE82AF838E2A8F2B882CB2
:100F240090DE2AE9F01CBCFF011D80D68E2A8F2B8F
:100F3400882C90DE11E04401F090F19BE0FC430426
:100F44000190F19BECF0020E6E22AA82AB837C002E
:100F54007D008A068B078E828F83E493F8A3AE828A
:100F6400AF83E860070CBC00ED0D80EA8A2A8B2B66
:100F7400752C807527F08C288D297582FE020E64ED
:100F840085822D752A2D752B00752C407527F175DA
:100F94002801E4F5297582FE020E6485822E85837C
:100FA4002F752A2E752B00752C407527F275280293
:100FB400E4F5297582FE020E6485823085833185CD
:100FC400F032F533752A30752B00752C407527F3F4
:100FD400752804E4F5297582FE020E6490DE00E0B3
:100FE400FA700F90F19DE0FABA01005005121BB59A
:100FF40080EAD2909000C81206B4C2909000C80251
:1010040006B453BE7F43BE8090DE01E054FEF0750B
:10101400260075240075250075230090DE0EE4F08B
:1010240090DE107408F090DE137408F090F18EE4F2
:10103400F090F18DF090F184F0A3F090F1867401BA
:10104400F0A374F1F0A3E4F090F189F0A3F090F12F
:101054008B7440F0A3E4F090DE0E7405F090DE1083
:10106400743FF090DE137408F090DE15E04480F0D5
:1010740090DE12E04480F090F19CE4F090F19BF05B
:1010840090F192F0A3F090F1947441F0A374F1F014
:10109400A3E4F090F197F0A3F090F1997440F0A3D9
:1010A400E4F090DE0B74F7F090DE0774FFF090DE4E
:1010B4000974FFF0438C10538CFED2BD439A027521
:1010C4008900C2C5758B00C2E8439A022290F0DE03
:1010D4007402F043BE80121006D290D2AF22AA82CC
:1010E400AB83ACF090F18EE06034D2909003E812C0
:1010F40006B4C2909003E81206B4D2909003E812AA
:1011040006B4C2909003E81206B4D2909003E81299
:1011140006B4C2909003E81206B490FFFF2290F147
:1011240081EAF0A3EBF0A3ECF090F184E534F0A3B2
:10113400E535F090F18E7401F090000022AA82ABA4
:101144008390F18EE06034D2909003E81206B4C22A
:10115400909003E81206B4D2909003E81206B4C249
:10116400909003E81206B4D2909003E81206B4C239
:10117400909003E81206B490FFFF227C0090F18166
:10118400EAF0A3EBF0A3ECF090F184E536F0A3E5EC
:1011940037F090F18E7401F090000022AA82AB83A4
:1011A400ACF090F19CE0600490FFFF2290F18FEA94
:1011B400F0A3EBF0A3ECF090F192E50DF0A3E50EB3
:1011C400F090F19C7401F0900000227A0290DE0EFF
:1011D400E4F090F184E0FBA3E0FCC374409BE49C46
:1011E40050047D4080048B057A0A8D067F00EBC392
:1011F4009EFBEC9FFC90F184EBF0A3ECF08D03EBF1
:1012040060047C0180027C00EC603690F181E0FC9B
:10121400A3E0FDA3E0FE8C828D838EF0121DD89096
:10122400DE20F090F181E0FCA3E0FDA3E0FE0CBC25
:1012340000010D90F181ECF0A3EDF0A3EEF01B8022
:10124400BE90DE11E04AF090F184E0FAA3E0FB4A9C
:10125400700590F18EE4F02290F18E7402F07582A4
:10126400002290F186E0FAA3E0FBA3E0FC90DE16F6
:10127400E0FD7E0090F189EDF0A3EEF090F18DE0B9
:10128400FD30E10A90F18E7403F090FFFF2290F19B
:101294008DE0FD43050290F18DEDF090F189E0FDC4
:1012A400A3E0FEC374409DE49E500990F18974400C
:1012B400F0A3E4F090F189E0FDA3E0FEED4E6004BC
:1012C4007F0180027F00EF601A90DE20E0FF8A82B7
:1012D4008B838CF0121DBFA3AA82AB831DBDFF01BB
:1012E4001E80D990F189E0FAA3E0FBC3EA9440EBB5
:1012F4009400500312020790F189E0FAA3E08A8275
:10130400F5832290F194E0FAA3E0FBA3E0FC90DEE5
:101314000E7405F090DE17E0FE7D0090DE16E0FF0F
:101324007800EF2DFDE83EFE90F197EDF0A3EEF08E
:1013340090F19BE0FD30E11190DE14E04420F09048
:10134400F19C7403F090FFFF2290F19BE0FD4305B4
:101354000290F19BEDF090F197E0FDA3E0FE90F197
:1013640099E0FFA3E0F8C3EF9DE89E500890F19741
:10137400EFF0A3E8F090F197E0FDA3E0FEED4E60FE
:10138400047F0180027F00EF601A90DE2AE0FF8A6A
:10139400828B838CF0121DBFA3AA82AB831DBDFF79
:1013A400011E80D990DE14E054FEF090F197E0FA2B
:1013B400A3E08A82F58322753401E4F53590002692
:1013C40075F0400210E2AA82AB83ACF074022AFAF0
:1013D400E43BFB8A828B838CF0121DD8FAA3121D86
:1013E400D88A262285820E7B547C0D7D8074012B45
:1013F400FEE43CFF8D008E828F8388F0121DD8FEA0
:10140400AF0DBEFF028052EEB50E2BEF70047EFFCF
:1014140080F01F8B828C838DF0121DD82BFBE43C53
:10142400FC74012BF8E43CF98D02888289838AF0EC
:10143400121DD8FE80CC8B828C838DF0121DD82B8C
:10144400FBE43CFC74012BFAE43CF88D018A8288AD
:101454008389F0121DD8FE80A98B828C838DF022A3
:1014640085823885833985F03A74022538F542E45B
:101474003539F543853A448542828543838544F072
:10148400121DD8F8A3121DD8F989407541007401C2
:10149400B54006E4B54102801A7402B54006E4B5CD
:1014A4004102802C7403B54007E4B5410302155290
:1014B40002156F8982750D001213E885823B8583BE
:1014C4003C85F03D121DD8FA8A3E753F000215880E
:1014D400898288048C0D1213E885823B85833C85C0
:1014E400F03D7402253BFCE4353CFDAE3D8C828D21
:1014F400838EF0121DD8FC8C3E753F008542828598
:1015040043838544F0121DD8A3121DD8FC7D0074BA
:1015140001253BFEE4353CFFAA3D8E828F838AF091
:10152400121DD8FE7A00ECB50606EDB50202805411
:101534008542828543838544F0121DD8FAA3121D87
:10154400D8FB7522108A828B83120DDF80E2898298
:1015540088028A0D1213E885823B85833C85F03D21
:10156400121DD8FA8A3E753F0080198982880D12AF
:1015740013E885823B85833C85F03D121DD8FA8AA9
:101584003E753F0074062538FAE43539FBAC3A8AD7
:10159400828B838CF0121DD8FAA3121DD8FBC3EAE8
:1015A400953EEB953F50048A3E8B3F853E34853F04
:1015B40035853B82853C83853DF01210E28542826D
:1015C4008543838544F0121DD8A3121DD8FA7B00ED
:1015D400BA021BBB0018D2909000021206B4C2904B
:1015E40090000A1206B490F19DE0FA4401F02290B2
:1015F400DE0EE4F090DE11E0FA30E40D90F18EE4BA
:10160400F090DE11E0FB4480F0EA30E22490DE1139
:10161400E4F090F0DF7404F090F18EE4F0D2909056
:1016240000C8C0021206B4C2909000C81206B4D01A
:101634000290F18EE0FBBB0319D2909001F4C0023A
:101644001206B4C2909001F41206B4D00290F18E46
:10165400E4F090F18EE06003021859EA20E00302FE
:10166400185990DE0EE4F07A007B457C007D40BA88
:101674000800501690DE20E0FE8B828C838DF012E1
:101684001DBFA3AB82AC830A80E5E545FA20E703DE
:1016940002177E74605AFB6015BB2003021843BB1B
:1016A400400302175FBB600302176B021843741FE9
:1016B4005AFB7046AC46BC0002801CBC0602800586
:1016C400BC082B800C90004575F04012146402187D
:1016D400431213BB021843E4F54DF54E753402E48E
:1016E400F53590004D75F0401210E2021843900059
:1016F4004575F040120F4D021843BB011AAC46BCAD
:101704000003021843BC0A0302184390004575F015
:1017140040120F4D021843BB022DAC46BC000280A0
:1017240008BC12030218438012753402E4F53590A4
:101734001DF875F0801210E202184390004575F010
:1017440040120F4D02184390004575F040120F4DA2
:1017540090DE11E0FC4420F002184390004575F03F
:101764004012020802184390DE11E04420F0900079
:101774004575F040120F4D02184374605AFC601511
:10178400BC2003021843BC4003021827BC600302B8
:101794001832021843741F5AFB703DAA46BA01035B
:1017A400021843BA0303021843BA0502800BBA07AE
:1017B40003021843BA0916800990DE00E547F002D7
:1017C400184390004575F0401213CA80729000458A
:1017D40075F040120F4D8067BB011CAA46BA010286
:1017E400805DBA03028058BA110280539000457597
:1017F400F040120F4D8048BB0217AA46BA0102807E
:101804003EBA0302803990004575F040120F4D80B6
:101814002E90DE11E04420F090004575F040120F48
:101824004D801C90004575F0401202088011900014
:101834004575F040120F4D90DE11E0FA4420F0900F
:10184400DE11E0FA4440F0E54B454C700890DE119F
:10185400E0FA4408F090F18EE0FABA01031211CFD5
:1018640090F18EE0FABA02030212662290DE0E7440
:1018740005F090F19BE0FA30E11490F19C7403F0D0
:1018840090DE14E04420F090F0DF7405F02290F133
:101894009BE0FA43020290F19BEAF090DE17E0FB32
:1018A4007A0090DE16E0FC7D00EC2AF551ED3BF564
:1018B40052C374409551E49552501D90F19C7403A9
:1018C400F090DE14E04420F0D29090012C1206B483
:1018D400C2909000C80206B490F194E0FCA3E0FD2D
:1018E400A3E0FE8C078D008F578858A951AA52E9AE
:1018F4004A60047B0180027B00EB601A90DE2AE0E0
:10190400FB855782855883F0A385825785835819B0
:10191400B9FF011A80D990F197E551F0A3E552F08F
:10192400C3E5519408E55294005003021BA77404C4
:101934002CFAE43DFB8E018A828B8389F0121DD838
:10194400F55474052CFBE43DF98E028B8289838A5D
:10195400F0121DD8F55374062CFFE43DF88F8288ED
:1019640083E0FBA38B51755200E0FBA3AF82A883F5
:101974008B047B00EB2551F551EC3552F55274FF85
:10198400B554028003021BA27480B55302802B74E9
:1019940081B55303021A1A7482B55303021B0874E7
:1019A40083B55303021B207484B55303021A9B743A
:1019B40085B55303021B3A021B7D8F828883E0FBAB
:1019C400A38B51755200E0FBA3AF82A8838B047BE9
:1019D40000EB2551F551EC3552F5528F828883E0A6
:1019E400FBA38B4F755000E0FE7D00ED254FF54FB6
:1019F400EE3550F550854F5585505685552A8556F8
:101A04002B752C00855327855128855229855482AE
:101A1400120E64021B938F828883E0F9A3894F75A9
:101A24005000E0F9A3AF82A88389037900E9254F28
:101A3400F54FEB3550F550854F558550568F03883B
:101A440004855557855658754F02E4F550C3E54F44
:101A54009551E550955250248B828C83E0FAA3ABC8
:101A640082AC83855782855883EAF0A385825785A3
:101A74008358054FE4B54FD5055080D1752AFB75C1
:101A84002B1D752C80855327752801E4F529855471
:101A940082120E64021B938F828883E0FAA38A4F1A
:101AA400755000E0FAA3AF82A8838A037A00EA257E
:101AB4004FF54FEB3550F550854F558550568F02F5
:101AC40088037C027900C3EC9551E99552501A8A37
:101AD400828B83E0FDA3AA82AB83855582855683DE
:101AE400EDF00CBC00E00980DD752AFD752B1D7539
:101AF4002C80855327752801E4F529855482120E1C
:101B040064021B938F2A882B752C008553278551DB
:101B140028855229855482120E648073752AFE75B5
:101B24002B1D752C8085532775280DE4F5298554C4
:101B340082120E6480598F828883E0FAA3AF82A850
:101B440083BA0102800ABA0202801FBA032B800DF5
:101B5400C007C0001204B3D000D007801CC007C067
:101B6400001204C5D000D007800F8F828883C0077D
:101B7400C00012040ED000D0078F2A882B752C00C9
:101B8400855327855128855229855482120E6490E5
:101B9400F19BE0FA5302FD90F19BEAF0800B1202F4
:101BA40003800690F0DF7407F090DE14E054FEF03A
:101BB40022E52430E4111215F374E75524FA740F66
:101BC4005525FB8A248B25AA24AB25EA30E0117520
:101BD400230174FE5524FCAD258C248D2543BE01C0
:101BE400EA5406602C90F0DE740AF075230274FD4A
:101BF4005524FAAB258A248B2590DE01E04404F0B9
:101C04009000081206B490DE01E0FA54FBF075234C
:101C140000E52420E2057403B5231412100690F0A5
:101C2400DE740BF074FB5524FAAB258A248B25E56E
:101C34002530E63590F0DE740CF090F19CE0FABAB1
:101C4400031990F0DF7408F090F19CE4F090DE0E3C
:101C54007405F090DE14E0FA549FF0121870AA2470
:101C640074BF5525FB8A248B25AA24AB25EA54E0AE
:101C74007005EB54BD601E90F0DF7409F0752210FE
:101C84008A828B83120DDF74E05524FA74BD5525C6
:101C9400FB8A248B2574FFB52313D2909000021283
:101CA40006B4C29090000A1206B475230022C0E064
:101CB400C082C083C002C003C004C005C0D075D0B8
:101CC40000E5BE30E6FBC2AF90DE06E0FA7B00E53D
:101CD400244202E52542038A248B2590DE02E0FC9F
:101CE400E4C454F0CCC4CC6CCC54F0CC6CFDEC42C9
:101CF40002ED42038A248B2590DE04E025E0FDE416
:101D0400FC4202ED42038A24EBF52530E11890F100
:101D14009BE0FA5302FE90F19BEAF0AA2474FD556D
:101D240025FB8A248B25758B00C2E8D2AFD0D0D096
:101D340005D004D003D002D083D082D0E032C0E0FA
:101D4400E5BE30E6FBC2AFE58930E70375230253F5
:0C1D5400BEFC758900C2C5D2AFD0E032E1
:101DF800000000300000554E494D504C454D454EB1
:041E080054454400F9
:101D600085821085831185F012AD0DAE0EAF0FA8E0
:101D700010A911AA128D828E838FF0121DD8FBA399
:101D8000AD82AE83888289838AF0EB121DBFA3A83F
:101D900082A983EB70DF8510828511838512F02282
:06017800E478FFF6D8FD5B
:101DA000AC82AD83AE0EAF0FBE0004EF600C1F0F10
:0F1DB000E50D121DBFA3DEFADFF88C828D8322B2
:100156007908E94400601B7A01901E0C789E75931D
:10016600F1E493F2A308B800020593D9F4DAF27524
:0201760093FFF5
:101DBF0020F71030F6118883A88220F507F6A88344
:091DCF0075830022F280F7F02276
:10017E007800E84400600A79007593F0E4F309D83A
:10018E00FC789EE84401600C790290F000E4F0A344
:04019E00D8FCD9FAB6
:0D014900758158121DF4E5826003020086E6
:101DD80020F71430F6148883A88220F507E6A88334
:101DE80075830022E280F7E49322E02275820022C4
:00000001FF
