:040000000200733255
:01000B0032C2
:0100130032BA
:01001B0032B2
:0100230032AA
:01002B0032A2
:03003300021211A5
:01003B003292
:01004300328A
:01004B003282
:01005300327A
:01005B003272
:01006300326A
:03006B000212A1DD
:0300CC0002006EC1
:05006E0012030280FEF8
:1000CF001201000202000040510415470100010215
:1000DF0003010902200001010080FA090400000257
:1000EF00FFFF010007058502F40101070505024026
:1000FF00000104030904240322002200220022002D
:10010F0022002200220022002200220022002200D0
:10011F0022002200220022002200260322002200B9
:10012F0022002200220022002200220022002200B0
:10013F0022002200220022002200220022002200A0
:10014F00080322002200220000FF22AA82AB831A9A
:10015F00BAFF011BC3E49A74808BF063F08095F0B3
:10016F00500F7CB07D041CBCFF011DEC4D70F7805F
:10017F00DE22AA82AB831ABAFF011BC3E49A7480F2
:10018F008BF063F08095F040ED22AA82AB83D29082
:10019F008A828B8312015AC290850982850A830253
:1001AF00015AAA82AB83C2AFD2909003E8C002C0BB
:1001BF000312015AC2909001F412015AD003D002D7
:1001CF00150BAC0BEC20E754EA30E024900019C07B
:1001DF0002C003C00412015AD29090022612015A93
:1001EF00C29090001912015AD004D003D00280227D
:1001FF00900113C002C003C00412015AD2909000A4
:10020F003212015AC29090011312015AD004D00336
:10021F00D002EBC313CA13CAFB1C80A8C290900371
:10022F00E812015AD2AF2290F0A0E4F090F09FF0C4
:10023F0090F0A2F090F0A1F02290F0A1E0FA90F0EF
:10024F00A2E0FBEAB50301227B447C007D4090F0E5
:10025F00A2E0FEEAB506012290F0A2EE04F0EE2431
:10026F00A3F582E434F0F583E0FE8B828C838DF06E
:10027F00121351A3AB82AC8390F0A2E0FE24DF50A7
:10028F00CD90F0A2E4F080C690F09AE0FA5302FD10
:10029F0090F09AEAF09000002222AA82AB83ACF091
:1002AF0012136AFD30E711752102E4F52290F09DDB
:1002BF0075F00012070D802B74042AFAE43BFB8AB9
:1002CF00828B838CF012136AFAA312136AFBEA541F
:1002DF000F601012082690F08CE0FA5302FD90F098
:1002EF008CEAF09000002243FE03C290221206E334
:1002FF000202F61202FC1206FC1202361211201232
:10030F00024880F812010002020000405104154714
:10031F000100010203010902200001010080FA0916
:10032F0004000002FFFF010007058502F401010729
:10033F0005050240000104030904240322002200E2
:10034F00220022002200220022002200220022008E
:10035F002200220022002200220022002200260377
:10036F00220022002200220022002200220022006E
:10037F00220022002200220022002200220022005E
:10038F0022002200080322002200220000FF22AADE
:10039F0082AB831ABAFF011BC3E49A74808BF0639C
:1003AF00F08095F0500F7CB07D041CBCFF011DEC5C
:1003BF004D70F780DE22AA82AB831ABAFF011BC3EE
:1003CF00E49A74808BF063F08095F040ED22AA825E
:1003DF00AB83D2908A828B8312039EC290850D824B
:1003EF00850E8302039EAA82AB83C2AFD290900385
:1003FF00E8C002C00312039EC2909001F412039E44
:10040F00D003D002150FAC0FEC20E754EA30E024F4
:10041F00900019C002C003C00412039ED290900234
:10042F002612039EC29090001912039ED004D0038F
:10043F00D0028022900113C002C003C00412039E99
:10044F00D29090003212039EC29090011312039E1D
:10045F00D004D003D002EBC313CA13CAFB1C80A86D
:10046F00C2909003E812039ED2AF22AA827B019022
:10047F00DE0E7405F0E51545167001227C647D00D3
:10048F0090F09AE0FE30E02CEC4D6028D290900076
:10049F0002C002C003C004C00512039EC2909000A8
:1004AF000A12039ED005D004D003D00290F09E74A0
:1004BF0001F080CCBB01307B0090DE2A7440F0EA63
:1004CF00F0E514F0AE157F0090DE2AEEF0E516F0A1
:1004DF00C374EF95157401951650067CEF7D01805E
:1004EF001BAC15AD168015C374F4951574019516D4
:1004FF0050067CF47D018004AC15AD16E515C39C48
:10050F00F515E5169DF516AE17AF18A819EC4D6049
:10051F00027401F960218E828F8388F012136AF9B9
:10052F00A3AE82AF838E178F18881990DE2AE9F059
:10053F001CBCFF011D80D68E178F18881990DE11F5
:10054F00E04401F090F09AE0FC43040190F09AEC43
:10055F00F002048422AA82AB837C007D008A068B82
:10056F00078E828F83E493F8A3AE82AF83E8600790
:10057F000CBC00ED0D80EA8A178B18751980751465
:10058F00F08C158D167582FE02047A85821A751706
:10059F001A7518007519407514F1751501E4F516E3
:1005AF007582FE02047A85821B85831C75171B7565
:1005BF0018007519407514F2751502E4F516758259
:1005CF00FE02047A85821D85831E85F01FF5207536
:1005DF00171D7518007519407514F3751504E4F59A
:1005EF00167582FE02047A90DE00E0FA700F90F02A
:1005FF009CE0FABA0100500512112080EA750DC86F
:10060F00E4F50E9000C80203DD53BE7F43BE809019
:10061F00DE01E054FEF075130075110075120075C0
:10062F00100090DE0EE4F090DE107408F090DE13F0
:10063F007408F090F08DE4F090F08CF090F083F06F
:10064F00A3F090F0857400F0A374F0F0A3E4F090A1
:10065F00F088F0A3F090F08A7440F0A3E4F090DEFD
:10066F000E7405F090DE10743FF090DE137408F0F6
:10067F0090DE15E04480F090DE12E04480F090F0C0
:10068F009BE4F090F09AF090F091F0A3F090F0933B
:10069F007440F0A374F0F0A3E4F090F096F0A3F0A0
:1006AF0090F0987440F0A3E4F090DE0B74F7F090A4
:1006BF00DE0774FFF090DE0974FFF0438C10538C4B
:1006CF00FED2BD439A02758900C2C5758B00C2E880
:1006DF00439A022253BEFBE5BE30E6FB53C6B8E594
:1006EF00C620E6FB43BE04E5BE30E6FB2290F09D3C
:1006FF007402F043BE80120618D290D2AF22AA82A3
:10070F00AB83ACF090F08DE06028750DE8750E03AB
:10071F009003E81203DD750DE8750E039003E812E0
:10072F0003DD750DE8750E039003E81203DD90FFEE
:10073F00FF2290F080EAF0A3EBF0A3ECF090F083AF
:10074F00E521F0A3E522F090F08D7401F090000008
:10075F0022AA82AB83ACF090F09BE0600490FFFF85
:10076F002290F08EEAF0A3EBF0A3ECF090F091E57D
:10077F0044F0A3E545F090F09B7401F09000002247
:10078F007A0290DE0EE4F090F083E0FBA3E0FCC36E
:10079F0074409BE49C50047D4080048B057A0A8D45
:1007AF00067F00EBC39EFBEC9FFC90F083EBF0A366
:1007BF00ECF08D03EB60047C0180027C00EC603672
:1007CF0090F080E0FCA3E0FDA3E0FE8C828D838E91
:1007DF00F012136A90DE20F090F080E0FCA3E0FDB1
:1007EF00A3E0FE0CBC00010D90F080ECF0A3EDF047
:1007FF00A3EEF01B80BE90DE11E04AF090F083E094
:10080F00FAA3E0FB4A700590F08DE4F02290F08D92
:10081F007402F07582002290F085E0FAA3E0FBA34A
:10082F00E0FC90DE16E0FD7E0090F088EDF0A3EE88
:10083F00F090F08CE0FD30E10A90F08D7403F090B1
:10084F00FFFF2290F08CE0FD43050290F08CEDF05D
:10085F0090F088E0FDA3E0FEC374409DE49E500934
:10086F0090F0887440F0A3E4F090F088E0FDA3E0EE
:10087F00FEED4E60047F0180027F00EF601A90DE74
:10088F0020E0FF8A828B838CF0121351A3AA82ABD4
:10089F00831DBDFF011E80D990F088E0FAA3E0FB15
:1008AF00C3EA9440EB940050031202A890F088E042
:1008BF00FAA3E08A82F5832290F093E0FAA3E0FB9B
:1008CF00A3E0FC90DE0E7405F090DE17E0FE7D00D5
:1008DF0090DE16E0FF7800EF2DFDE83EFE90F096DB
:1008EF00EDF0A3EEF090F09AE0FD30E11190DE1400
:1008FF00E04420F090F09B7403F090FFFF2290F003
:10090F009AE0FD43050290F09AEDF090F096E0FD2D
:10091F00A3E0FE90F098E0FFA3E0F8C3EF9DE89E00
:10092F00500890F096EFF0A3E8F090F096E0FDA35A
:10093F00E0FEED4E60047F0180027F00EF601A90B1
:10094F00DE2AE0FF8A828B838CF0121351A3AA82D6
:10095F00AB831DBDFF011E80D990DE14E054FEF065
:10096F0090F096E0FAA3E08A82F58322752101E4E4
:10097F00F52290001375F04002070DAA82AB83ACED
:10098F00F074022AFAE43BFB8A828B838CF01213F9
:10099F006AFAA312136A8A13228582457B137C039A
:1009AF007D8074012BFEE43CFF8D008E828F838847
:1009BF00F012136AFEAF44BEFF028052EEB5452B14
:1009CF00EF70047EFF80F01F8B828C838DF01213EB
:1009DF006A2BFBE43CFC74012BF8E43CF98D028894
:1009EF008289838AF012136AFE80CC8B828C838D6E
:1009FF00F012136A2BFBE43CFC74012BFAE43CF875
:100A0F008D018A82888389F012136AFE80A98B82F6
:100A1F008C838DF02285822385832485F0257402B3
:100A2F002523F52DE43524F52E85252F852D82855B
:100A3F002E83852FF012136AF8A312136AF9892BEC
:100A4F00752C007401B52B06E4B52C02801A7402C4
:100A5F00B52B06E4B52C02802C7403B52B07E4B537
:100A6F002C03020B12020B2F89827544001209A866
:100A7F0085822685832785F02812136AFA8A2975BD
:100A8F002A00020B48898288048C441209A88582A7
:100A9F002685832785F02874022526FCE43527FD5B
:100AAF00AE288C828D838EF012136AFC8C29752AE6
:100ABF0000852D82852E83852FF012136AA31213C2
:100ACF006AFC7D0074012526FEE43527FFAA288ED7
:100ADF00828F838AF012136AFE7A00ECB50606ED58
:100AEF00B502028054852D82852E83852FF0121337
:100AFF006AFAA312136AFB750F108A828B83120393
:100B0F00F580E2898288028A441209A885822685A7
:100B1F00832785F02812136AFA8A29752A0080190B
:100B2F00898288441209A885822685832785F02823
:100B3F0012136AFA8A29752A0074062523FAE435F6
:100B4F0024FBAC258A828B838CF012136AFAA312D2
:100B5F00136AFBC3EA9529EB952A50048A298B2A3D
:100B6F00852921852A228526828527838528F012CB
:100B7F00070D852D82852E83852FF012136AA31200
:100B8F00136AFA7B00BA021BBB0018D290900002C6
:100B9F0012039EC29090000A12039E90F09CE0FAFE
:100BAF004401F02290DE0EE4F090DE11E0FA30E422
:100BBF000D90F08DE4F090DE11E0FB4480F0EA3010
:100BCF00E22090DE11E4F090F09E7404F090F08D2E
:100BDF00E4F0750DC8E4F50E9000C8C0021203DDF5
:100BEF00D00290F08DE0FBBB0315750DF4750E016F
:100BFF009001F4C0021203DDD00290F08DE4F0906A
:100C0F00F08DE06003020E14EA20E003020E149050
:100C1F00DE0EE4F07A007B307C007D40BA08005095
:100C2F001690DE20E0FE8B828C838DF0121351A381
:100C3F00AB82AC830A80E5E530FA20E703020D367C
:100C4F0074605AFB6015BB2003020DFEBB4003020C
:100C5F000D17BB6003020D23020DFE741F5AFB70AC
:100C6F0046AC31BC0002801CBC06028005BC082BC0
:100C7F00800C90003075F040120A24020DFE12090C
:100C8F007B020DFEE4F538F539752102E4F522906B
:100C9F00003875F04012070D020DFE90003075F010
:100CAF0040120563020DFEBB011AAC31BC000302FA
:100CBF000DFEBC0A03020DFE90003075F0401205C8
:100CCF0063020DFEBB022DAC31BC00028008BC12CA
:100CDF0003020DFE8012752102E4F52290138A752E
:100CEF00F08012070D020DFE90003075F0401205D6
:100CFF0063020DFE90003075F04012056390DE1117
:100D0F00E0FC4420F0020DFE90003075F04012021E
:100D1F00A9020DFE90DE11E04420F090003075F036
:100D2F0040120563020DFE74605AFC6015BC20036F
:100D3F00020DFEBC4003020DE2BC6003020DED028A
:100D4F000DFE741F5AFB703FAA31BA0103020DFE4C
:100D5F00BA0303020DFEBA0502800BBA0703020D98
:100D6F00FEBA0917800990DE00E532F0020DFE9001
:100D7F00003075F04012098A020DFE90003075F0B8
:100D8F0040120563020DFEBB011DAA31BA01030219
:100D9F000DFEBA03028058BA1102805390003075CD
:100DAF00F0401205638048BB0217AA31BA010280D6
:100DBF003EBA0302803990003075F040120563800F
:100DCF002E90DE11E04420F090003075F0401205B7
:100DDF0063801C90003075F0401202A980119000C2
:100DEF003075F04012056390DE11E0FA4420F09068
:100DFF00DE11E0FA4440F0E5364537700890DE1119
:100E0F00E0FA4408F090F08DE0FABA010312078F70
:100E1F0090F08DE0FABA02030208262290DE0E74DB
:100E2F0005F090F09AE0FA30E11490F09B7403F023
:100E3F0090DE14E04420F090F09E7405F02290F0C4
:100E4F009AE0FA43020290F09AEAF090DE17E0FB84
:100E5F007A0090DE16E0FC7D00EC2AF53CED3BF5C8
:100E6F003DC37440953CE4953D501990F09B74033D
:100E7F00F090DE14E04420F0750DC8E4F50E9001FB
:100E8F002C0203DD90F093E0FCA3E0FDA3E0FE8CC9
:100E9F00078D008F428843A93CAA3DE94A60047B35
:100EAF000180027B00EB601A90DE2AE0FB85428214
:100EBF00854383F0A385824285834319B9FF011AC5
:100ECF0080D990F096E53CF0A3E53DF0C3E53C9466
:100EDF0008E53D9400500302111274042CFAE43D0E
:100EEF00FB8E018A828B8389F012136AF53F74059A
:100EFF002CFBE43DF98E028B8289838AF012136AF0
:100F0F00F53E74062CFFE43DF88F828883E0FBA347
:100F1F008B3C753D00E0FBA3AF82A8838B047B0065
:100F2F00EB253CF53CEC353DF53D74FFB53F0280BC
:100F3F000302110D7480B53E0280237481B53E0308
:100F4F00020FC97482B53E030210B67483B53E0317
:100F5F000210CE7484B53E0302104A0210E88F824D
:100F6F008883E0FBA38B3C753D00E0FBA3AF82A819
:100F7F00838B047B00EB253CF53CEC353DF53D8F39
:100F8F00828883E0FBA38B3A753B00E0FE7D00ED8A
:100F9F00253AF53AEE353BF53B853A40853B4185A1
:100FAF004017854118751900853E14853C15853D00
:100FBF0016853F8212047A0210FE8F828883E0F931
:100FCF00A3893A753B00E0F9A3AF82A8838903791F
:100FDF0000E9253AF53AEB353BF53B853A40853B41
:100FEF00418F038804854042854143753A02E4F5F9
:100FFF003BC3E53A953CE53B953D50248B828C8372
:10100F00E0FAA3AB82AC83854282854383EAF0A3E7
:10101F00858242858343053AE4B53AD5053B80D1B5
:10102F0075178D751813751980853E14751501E4A4
:10103F00F516853F8212047A0210FE8F828883E0B4
:10104F00FAA38A3A753B00E0FAA3AF82A8838A031A
:10105F007A00EA253AF53AEB353BF53B853A408580
:10106F003B418F0288037C027900C3EC953CE995E4
:10107F003D501A8A828B83E0FDA3AA82AB83854001
:10108F0082854183EDF00CBC00E00980DD75178F80
:10109F00751813751980853E14751501E4F51685BD
:1010AF003F8212047A80488F178818751900853E81
:1010BF0014853C15853D16853F8212047A80307564
:1010CF001790751813751980853E1475150DE4F575
:1010DF0016853F8212047A80168F178818751900AB
:1010EF00853E14853C15853D16853F8212047A9006
:1010FF00F09AE0FA5302FD90F09AEAF0800B120298
:10110F0097800690F09E7407F090DE14E054FEF086
:10111F0022E51130E411120BB374E75511FA740F75
:10112F005512FB8A118B12AA11AB12EA30E011751E
:10113F00100174FE5511FCAD128C118D1243BE01BE
:10114F00EA5406602C90F09D740AF075100274FD3D
:10115F005511FAAB128A118B1290DE01E04404F0A4
:10116F0090000812039E90DE01E0FA54FBF0751018
:10117F0000E51120E2057403B5100E12061874FB7A
:10118F005511FAAB128A118B12E51230E62F90F03F
:10119F009BE0FABA031990F09E7408F090F09BE46C
:1011AF00F090DE0E7405F090DE14E0FA549FF0120A
:1011BF000E2BAA1174BF5512FB8A118B12AA11ABF9
:1011CF0012EA54E07005EB54BD601E90F09E740956
:1011DF00F0750F108A828B831203F574E05511FAA4
:1011EF0074BD5512FB8A118B1274FFB51013D29078
:1011FF0090000212039EC29090000A12039E751077
:10120F000022C0E0C082C083C002C003C004C0057A
:10121F00C0D075D000E5BE30E6FBC2AF90DE06E071
:10122F00FA7B00E5114202E51242038A118B1290FC
:10123F00DE02E0FCE4C454F0CCC4CC6CCC54F0CC53
:10124F006CFDEC4202ED42038A118B1290DE04E03A
:10125F0025E0FDE4FC4202ED42038A11EBF512306A
:10126F00E11890F09AE0FA5302FE90F09AEAF0AA91
:10127F001174FD5512FB8A118B12758B00C2E8D2C7
:10128F00AFD0D0D005D004D003D002D083D082D03D
:10129F00E032C0E0E5BE30E6FBC2AFE58930E703E0
:1012AF0075100253BEFC758900C2C5D2AFD0E032B3
:1012BF00C0E0C082C083C002C003C0D075D000E5BB
:1012CF00BE30E6FBC2AF90DF3BE0FABA0D2890F0DC
:1012DF00A1E0FA90F0A104F0EA24A3F582E434F03F
:1012EF00F583E5D9F090F0A1E0FABA2000404490E0
:1012FF00F0A1E4F0803D90DF3BE0FABA133590F0B7
:10130F00A0E0FA90F09FE0FBEAB50302802590F091
:10131F00A0EA04F0EA24C3F582E434F0F583E0F5A3
:10132F00D990F0A0E0FABA200040D390F0A074203A
:10133F00F080CBD2AFD0D0D003D002D083D082D028
:02134F00E0328A
:10138A00000000300000554E494D504C454D454E29
:04139A005445440072
:0600A200E478FFF6D8FD32
:100080007900E94400601B7A0090139E78E3759331
:10009000F0E493F2A308B800020593D9F4DAF275FC
:0200A00093FFCC
:1013510020F71030F6118883A88220F507F6A883BC
:0913610075830022F280F7F022EE
:1000A8007800E84400600A79007593F0E4F309D811
:1000B800FC78E3E84400600C790190F000E4F0A3D8
:0400C800D8FCD9FA8D
:0D007300758163121386E582600302006E42
:10136A0020F71430F6148883A88220F507E6A883AC
:10137A0075830022E280F7E49322E022758200223C
:00000001FF
