:040000000200733255
:01000B0032C2
:0100130032BA
:01001B0032B2
:0100230032AA
:01002B0032A2
:0300330002125264
:01003B003292
:01004300328A
:01004B003282
:01005300327A
:01005B003272
:01006300326A
:03006B000212E29C
:0300CC0002006EC1
:05006E001202A380FE58
:1000CF001201000202000040510415470100010215
:1000DF0003010902200001010080FA090400000257
:1000EF00FFFF010007058502F40101070505024026
:1000FF00000104030904240322002200220022002D
:10010F0022002200220022002200220022002200D0
:10011F0022002200220022002200260322002200B9
:10012F0022002200220022002200220022002200B0
:10013F0022002200220022002200220022002200A0
:10014F00080322002200220000FF22AA82AB831A9A
:10015F00BAFF011BC3E49A74808BF063F08095F0B3
:10016F00500F7CB07D041CBCFF011DEC4D70F7805F
:10017F00DE22AA82AB831ABAFF011BC3E49A7480F2
:10018F008BF063F08095F040ED22AA82AB83D29082
:10019F008A828B8312015AC290850982850A830253
:1001AF00015AAA82AB83C2AFD2909003E8C002C0BB
:1001BF000312015AC2909001F412015AD003D002D7
:1001CF00150BAC0BEC20E754EA30E024900019C07B
:1001DF0002C003C00412015AD29090022612015A93
:1001EF00C29090001912015AD004D003D00280227D
:1001FF00900113C002C003C00412015AD2909000A4
:10020F003212015AC29090011312015AD004D00336
:10021F00D002EBC313CA13CAFB1C80A8C290900371
:10022F00E812015AD2AF22222290F09AE0FA53023A
:10023F00FD90F09AEAF09000002222AA82AB83ACE4
:10024F00F0121319FD30E711751B02E4F51C90F045
:10025F009D75F000120754802B74042AFAE43BFBBF
:10026F008A828B838CF0121319FAA3121319FBEAEB
:10027F00540F601012086790F08CE0FA5302FD9053
:10028F00F08CEAF09000002243FE03C29022120786
:10029F002702029712029D120740120236121161B5
:1002AF0012023780F81201000202000040510415BB
:1002BF00470100010203010902200001010080FA39
:1002CF000904000002FFFF010007058502F4010188
:1002DF00070505024000010403090424032200223C
:1002EF0000220022002200220022002200220022EF
:1002FF0000220022002200220022002200220026DB
:10030F0003220022002200220022002200220022CB
:10031F0000220022002200220022002200220022BE
:10032F000022002200080322002200220000FF22E8
:10033F00AA82AB831ABAFF011BC3E49A74808BF0B5
:10034F0063F08095F0500F7CB07D041CBCFF011D45
:10035F00EC4D70F780DE22AA82AB831ABAFF011B25
:10036F00C3E49A74808BF063F08095F040ED22AA7D
:10037F0082AB83D2908A828B8312033FC290850D0A
:10038F0082850E8302033FAA82AB83C2AFD29090C5
:10039F0003E8C002C00312033FC2909001F412039E
:1003AF003FD003D002150FAC0FEC20E754EA30E03A
:1003BF0024900019C002C003C00412033FD29090D2
:1003CF00022612033FC29090001912033FD004D0AF
:1003DF0003D0028022900113C002C003C004120395
:1003EF003FD29090003212033FC29090011312033C
:1003FF003FD004D003D002EBC313CA13CAFB1C8037
:10040F00A8C2909003E812033FD2AF22AA827B01C9
:10041F0090DE0E7405F0E53F45407001227C647D4F
:10042F000090F09AE0FE30E00CEC4D600890F09EEA
:10043F007401F080ECBB01307B0090DE2A7440F039
:10044F00EAF0E53EF0AE3F7F0090DE2AEEF0E540A9
:10045F00F0C374EF953F7401954050067CEF7D011A
:10046F00801BAC3FAD408015C374F4953F7401956C
:10047F004050067CF47D018004AC3FAD40E53FC3A6
:10048F009CF53FE5409DF540AE41AF42A843EC4D92
:10049F006004790180027900E960218E828F838860
:1004AF00F0121319F9A3AE82AF838E418F428843A6
:1004BF0090DE2AE9F01CBCFF011D80D28E418F42D5
:1004CF00884390DE11E04401F090F09AE0FC430481
:1004DF000190F09AECF002042522AA82AB837C00F3
:1004EF007D008A068B078E828F83E493F8A3AE82FA
:1004FF00AF83E860070CBC00ED0D80EA8A418B42A8
:10050F00754380753EF08C3F8D407582FE02041B53
:10051F00858214754114754200754340753EF1751F
:10052F003F01E4F5407582FE02041B858215858329
:10053F0016754115754200754340753EF2753F02C1
:10054F00E4F5407582FE02041B85821785831885AA
:10055F00F019F51A754117754200754340753EF352
:10056F00753F04E4F5407582FE02041B90DE00E047
:10057F00FA700F90F09CE0FABA0100500512116169
:10058F0080EA750DC8E4F50E9000C802037E90F066
:10059F009FE4F0A3F090DE20E0FA7B0090F0A1EA58
:1005AF00F0A3EBF090F0A3E4F090F0A4F090F0A59E
:1005BF00E054FEF0E04406F0E05407F090F0A6E0BF
:1005CF0054FC4401F090F0A6E054F3F090F0A6E054
:1005DF0054EFF090F0A6E054DFF090F0A6E0543F17
:1005EF004480F090DE20E0FA7B0090F0A7EAF0A3C1
:1005FF00EBF07A007BF090F0A9EAF0A3EBF090F02B
:10060F00ABE4F090F0ACF090F0ADE054FEF0E044CD
:10061F0006F0E05407F090F0AEE054FCF090F0AE2E
:10062F00E054F34404F090F0AEE054EFF090F0AEED
:10063F00E054DFF090F0AEE0543F4480F07A9F7BBF
:10064F00F08BD37A9F7BF08AD275D6022253BE7F6E
:10065F0043BE8090DE01E054FEF07513007511006B
:10066F0075120075100090DE0EE4F090DE10740825
:10067F00F090DE137408F090F08DE4F090F08CF0B1
:10068F0090F083F0A3F090F0857400F0A374F0F075
:10069F00A3E4F090F088F0A3F090F08A7440F0A3F8
:1006AF00E4F090DE0E7405F090DE10743FF090DEF3
:1006BF00137408F090DE15E04480F090DE12E044F1
:1006CF0080F090F09BE4F090F09AF090F091F0A30E
:1006DF00F090F0937440F0A374F0F0A3E4F090F076
:1006EF0096F0A3F090F0987440F0A3E4F090DE0B36
:1006FF0074F7F090DE0774FFF090DE0974FFF0439B
:10070F008C10538CFED2BD439A02758900C2C575F9
:10071F008B00C2E8439A022253BEFBE5BE30E6FBD4
:10072F0053C6B8E5C620E6FB43BE04E5BE30E6FB84
:10073F002290F09D7402F012059D43BE8012065C5C
:10074F00D290D2AF22AA82AB83ACF090F08DE06052
:10075F0028750DE8750E039003E812037E750DE8FA
:10076F00750E039003E812037E750DE8750E039066
:10077F0003E812037E90FFFF2290F080EAF0A3EBD4
:10078F00F0A3ECF090F083E51BF0A3E51CF090F0E4
:10079F008D7401F090000022AA82AB83ACF090F030
:1007AF009BE0600490FFFF2290F08EEAF0A3EBF045
:1007BF00A3ECF090F091E53EF0A3E53FF090F09BB5
:1007CF007401F0900000227A0290DE0EE4F090F0B7
:1007DF0083E0FBA3E0FCC374409BE49C50047D408A
:1007EF0080048B057A0A8D067F00EBC39EFBEC9F7E
:1007FF00FC90F083EBF0A3ECF090F0A4EDF090F010
:10080F0080E0FBA3E0FCA3E090F09FEBF0A3ECF003
:10081F0075D602900001C00212033FD00275D702B5
:10082F00E5D120E112750DC8E4F50E900064C00209
:10083F0012037ED00280E990DE11E04AF090F0833F
:10084F00E0FAA3E0FB4A700590F08DE4F02290F0FF
:10085F008D7402F07582002290F085E0FAA3E0FB20
:10086F00A3E0FC90DE16E0FD7E0090F088EDF0A393
:10087F00EEF090F08CE0FD30E10A90F08D7403F013
:10088F0090FFFF2290F08CE0FD43050290F08CED7D
:10089F00F090F088E0FDA3E0FEC374409DE49E500D
:1008AF000990F0887440F0A3E4F090F088E0FDA385
:1008BF00E0FEED4E60047F0180027F00EF601A9032
:1008CF00DE20E0FF8A828B838CF0121300A3AA82B2
:1008DF00AB831DBDFF011E80D990F088E0FAA3E025
:1008EF00FBC3EA9440EB9400500312024990F08846
:1008FF00E0FAA3E08A82F5832290F093E0FAA3E076
:10090F00FBA3E0FC90DE0E7405F090DE17E0FE7D99
:10091F000090DE16E0FF7800EF2DFDE83EFE90F030
:10092F0096EDF0A3EEF090F09AE0FD30E11190DE3D
:10093F0014E04420F090F09B7403F090FFFF22909E
:10094F00F09AE0FD43050290F09AEDF090F096E0FA
:10095F00FDA3E0FE90F098E0FFA3E0F8C3EF9DE861
:10096F009E500890F096EFF0A3E8F090F096E0FD1F
:10097F00A3E0FEED4E60047F0180027F00EF601A5E
:10098F0090DE2AE0FF8A828B838CF0121300A3AAD9
:10099F0082AB831DBDFF011E80D990DE14E054FE93
:1009AF00F090F096E0FAA3E08A82F58322751B019E
:1009BF00E4F51C90001375F040020754AA82AB8334
:1009CF00ACF074022AFAE43BFB8A828B838CF01220
:1009DF001319FAA31213198A132285823F7BB47C51
:1009EF00027D8074012BFEE43CFF8D008E828F838D
:1009FF0088F0121319FEAF3EBEFF028052EEB53FD4
:100A0F002BEF70047EFF80F01F8B828C838DF01292
:100A1F0013192BFBE43CFC74012BF8E43CF98D0219
:100A2F00888289838AF0121319FE80CC8B828C8383
:100A3F008DF01213192BFBE43CFC74012BFAE43CF0
:100A4F00F88D018A82888389F0121319FE80A98B91
:100A5F00828C838DF02285821D85831E85F01F7405
:100A6F0002251DF527E4351EF528851F29852782C8
:100A7F008528838529F0121319F8A3121319F98900
:100A8F00257526007401B52506E4B52602801A7473
:100A9F0002B52506E4B52602802C7403B52507E4BC
:100AAF00B52603020B53020B708982753E001209A3
:100ABF00E985822085832185F022121319FA8A2372
:100ACF00752400020B89898288048C3E1209E985FE
:100ADF00822085832185F02274022520FCE43521B4
:100AEF00FDAE228C828D838EF0121319FC8C237530
:100AFF0024008527828528838529F0121319A312D4
:100B0F001319FC7D0074012520FEE43521FFAA2274
:100B1F008E828F838AF0121319FE7A00ECB50606C7
:100B2F00EDB5020280548527828528838529F0122E
:100B3F001319FAA3121319FB750F108A828B8312E4
:100B4F00039680E2898288028A3E1209E985822013
:100B5F0085832185F022121319FA8A2375240080C8
:100B6F00198982883E1209E985822085832185F0C3
:100B7F0022121319FA8A237524007406251DFAE42C
:100B8F00351EFBAC1F8A828B838CF0121319FAA3CC
:100B9F00121319FBC3EA9523EB952450048A238B78
:100BAF002485231B85241C8520828521838522F0A3
:100BBF001207548527828528838529F0121319A3DC
:100BCF00121319FA7B00BA021BBB0018D2909000C7
:100BDF000212033FC29090000A12033F90F09CE074
:100BEF00FA4401F02290DE0EE4F090DE11E0FA30CC
:100BFF00E40D90F08DE4F090DE11E0FB4480F0EA1C
:100C0F0030E22090DE11E4F090F09E7404F090F04A
:100C1F008DE4F0750DC8E4F50E9000C8C002120304
:100C2F007ED00290F08DE0FBBB0315750DF4750EB1
:100C3F00019001F4C00212037ED00290F08DE4F017
:100C4F0090F08DE06003020E55EA20E003020E558E
:100C5F0090DE0EE4F07A007B2A7C007D40BA08001B
:100C6F00501690DE20E0FE8B828C838DF0121300E5
:100C7F00A3AB82AC830A80E5E52AFA20E703020DD5
:100C8F007774605AFB6015BB2003020E3FBB400315
:100C9F00020D58BB6003020D64020E3F741F5AFB16
:100CAF007046AC2BBC0002801CBC06028005BC0841
:100CBF002B800C90002A75F040120A65020E3F122D
:100CCF0009BC020E3FE4F532F533751B02E4F51C47
:100CDF0090003275F040120754020E3F90002A75B3
:100CEF00F0401204E8020E3FBB011AAC2BBC00030C
:100CFF00020E3FBC0A03020E3F90002A75F040120D
:100D0F0004E8020E3FBB022DAC2BBC00028008BCD6
:100D1F001203020E3F8012751B02E4F51C9013396B
:100D2F0075F080120754020E3F90002A75F04012A2
:100D3F0004E8020E3F90002A75F0401204E890DE9E
:100D4F0011E0FC4420F0020E3F90002A75F0401293
:100D5F00024A020E3F90DE11E04420F090002A7507
:100D6F00F0401204E8020E3F74605AFC6015BC207C
:100D7F0003020E3FBC4003020E23BC6003020E2E83
:100D8F00020E3F741F5AFB703FAA2BBA0103020ECB
:100D9F003FBA0303020E3FBA0502800BBA070302E4
:100DAF000E3FBA0917800990DE00E52CF0020E3FC6
:100DBF0090002A75F0401209CB020E3F90002A7561
:100DCF00F0401204E8020E3FBB011DAA2BBA01032B
:100DDF00020E3FBA03028058BA1102805390002AC4
:100DEF0075F0401204E88048BB0217AA2BBA010223
:100DFF00803EBA0302803990002A75F0401204E851
:100E0F00802E90DE11E04420F090002A75F0401201
:100E1F0004E8801C90002A75F04012024A8011905D
:100E2F00002A75F0401204E890DE11E0FA4420F039
:100E3F0090DE11E0FA4440F0E5304531700890DE65
:100E4F0011E0FA4408F090F08DE0FABA01031207AE
:100E5F00D690F08DE0FABA02030208672290DE0EF8
:100E6F007405F090F09AE0FA30E11490F09B74035F
:100E7F00F090DE14E04420F090F09E7405F0229084
:100E8F00F09AE0FA43020290F09AEAF090DE17E04F
:100E9F00FB7A0090DE16E0FC7D00EC2AF536ED3B88
:100EAF00F537C374409536E49537501990F09B741D
:100EBF0003F090DE14E04420F0750DC8E4F50E90B9
:100ECF00012C02037E90F093E0FCA3E0FDA3E0FE73
:100EDF008C078D008F3C883DA936AA37E94A6004FC
:100EEF007B0180027B00EB601A90DE2AE0FB853CE1
:100EFF0082853D83F0A385823C85833D19B9FF012F
:100F0F001A80D990F096E536F0A3E537F0C3E536B1
:100F1F009408E5379400500302115374042CFAE43B
:100F2F003DFB8E018A828B8389F0121319F5397478
:100F3F00052CFBE43DF98E028B8289838AF0121314
:100F4F0019F53874062CFFE43DF88F828883E0FB97
:100F5F00A38B36753700E0FBA3AF82A8838B047B8E
:100F6F0000EB2536F536EC3537F53774FFB539021A
:100F7F00800302114E7480B5380280237481B53816
:100F8F000302100A7482B538030210F77483B53860
:100F9F000302110F7484B5380302108B0211298FCD
:100FAF00828883E0FBA38B36753700E0FBA3AF820B
:100FBF00A8838B047B00EB2536F536EC3537F537F8
:100FCF008F828883E0FBA38B34753500E0FE7D00B4
:100FDF00ED2534F534EE3535F53585343A85353B29
:100FEF00853A41853B4275430085383E85363F85BE
:100FFF00374085398212041B02113F8F828883E0AC
:10100F00F9A38934753500E0F9A3AF82A88389036A
:10101F007900E92534F534EB3535F53585343A85E6
:10102F00353B8F038804853A3C853B3D753402E49C
:10103F00F535C3E5349536E535953750248B828CDD
:10104F0083E0FAA3AB82AC83853C82853D83EAF0D3
:10105F00A385823C85833D0534E4B534D5053580C1
:10106F00D175413C75421375438085383E753F01FC
:10107F00E4F54085398212041B02113F8F82888369
:10108F00E0FAA38A34753500E0FAA3AF82A8838A09
:10109F00037A00EA2534F534EB3535F53585343AE6
:1010AF0085353B8F0288037C027900C3EC9536E9C6
:1010BF009537501A8A828B83E0FDA3AA82AB838572
:1010CF003A82853B83EDF00CBC00E00980DD754171
:1010DF003E75421375438085383E753F01E4F540F8
:1010EF0085398212041B80488F41884275430085E1
:1010FF00383E85363F85374085398212041B803054
:10110F0075413F75421375438085383E753F0DE439
:10111F00F54085398212041B80168F418842754332
:10112F000085383E85363F85374085398212041B4E
:10113F0090F09AE0FA5302FD90F09AEAF0800B12C9
:10114F000238800690F09E7407F090DE14E054FE93
:10115F00F022E51130E411120BF474E75511FA7413
:10116F000F5512FB8A118B12AA11AB12EA30E01144
:10117F0075100174FE5511FCAD128C118D1243BE0A
:10118F0001EA5406602C90F09D740AF075100274F9
:10119F00FD5511FAAB128A118B1290DE01E0440457
:1011AF00F090000812033F90DE01E0FA54FBF07557
:1011BF001000E51120E2057403B5100E12065C74E1
:1011CF00FB5511FAAB128A118B12E51230E62F90F4
:1011DF00F09BE0FABA031990F09E7408F090F09B20
:1011EF00E4F090DE0E7405F090DE14E0FA549FF0F8
:1011FF00120E6CAA1174BF5512FB8A118B12AA1111
:10120F00AB12EA54E07005EB54BD601E90F09E7473
:10121F0009F0750F108A828B8312039674E05511B3
:10122F00FA74BD5512FB8A118B1274FFB51013D2CD
:10123F009090000212033FC29090000A12033F7574
:10124F00100022C0E0C082C083C002C003C004C02F
:10125F0005C0D075D000E5BE30E6FBC2AF90DE060C
:10126F00E0FA7B00E5114202E51242038A118B126C
:10127F0090DE02E0FCE4C454F0CCC4CC6CCC54F04F
:10128F00CC6CFDEC4202ED42038A118B1290DE040E
:10129F00E025E0FDE4FC4202ED42038A11EBF5127A
:1012AF0030E11890F09AE0FA5302FE90F09AEAF0CB
:1012BF00AA1174FD5512FB8A118B12758B00C2E8AF
:1012CF00D2AFD0D0D005D004D003D002D083D082FB
:1012DF00D0E032C0E0E5BE30E6FBC2AFE58930E7D3
:1012EF000375100253BEFC758900C2C5D2AFD0E0A2
:0112FF0032BC
:10133900000000300000554E494D504C454D454E7A
:0413490054454400C3
:0600A200E478FFF6D8FD32
:100080007900E94400601B7A0090134D78BF7593A6
:10009000F0E493F2A308B800020593D9F4DAF275FC
:0200A00093FFCC
:1013000020F71030F6118883A88220F507F6A8830D
:0913100075830022F280F7F0223F
:1000A8007800E84400600A79007593F0E4F309D811
:1000B800FC78BFE84400600C790190F000E4F0A3FC
:0400C800D8FCD9FA8D
:0D007300758143121335E582600302006EB3
:1013190020F71430F6148883A88220F507E6A883FD
:1013290075830022E280F7E49322E022758200228D
:00000001FF
