:0600000002008B0205F76F
:01000B0032C2
:0100130032BA
:01001B0032B2
:0100230032AA
:01002B0032A2
:030033000217A40D
:01003B003292
:01004300328A
:01004B003282
:01005300327A
:01005B003272
:01006300326A
:03006B0002183444
:01007300325A
:01007B003252
:030083000206C2B0
:0300E40002008691
:0500860012036C80FE76
:1000E70012010002020000405104154701000102FD
:1000F70003010902200001010080FA09040000023F
:10010700FFFF010007058502F4010107050502400D
:100117000001040309042403220022002200220014
:1001270022002200220022002200220022002200B8
:1001370022002200220022002200260322002200A1
:100147002200220022002200220022002200220098
:100157002200220022002200220022002200220088
:10016700080322002200220000FF22AA82AB83D2CA
:10017700908A828B83120814C290850982850A832C
:10018700020814AA82AB83C2AFD2909003E8C002E0
:10019700C003120814C2909001F4120814D003D0BF
:1001A70002150BAC0BEC20E754EA30E02490001961
:1001B700C002C003C004120814D29090022612088D
:1001C70014C290900019120814D004D003D00280F2
:1001D70022900113C002C003C004120814D29090E9
:1001E7000032120814C290900113120814D004D0E0
:1001F70003D002EBC313CA13CAFB1C80A8C290909A
:1002070003E8120814D2AF2222E50D605190F0DE08
:10021700740DF0539AFEE50D30E43D90F00DE0FAD1
:10022700B40100E433FA2492FBE434F0FC8B828CB3
:1002370083E07024EA75F041A4240EFBE434F0FC5B
:100247008B828C83C002120A65D002EA2492F5825F
:10025700E434F0F5837401F0750D00439A012290A0
:10026700F17AE0FA5302FD90F17AEAF09000002269
:1002770022AA82AB83ACF01218CAFD20E70302035F
:100287000D74012AFDE43BFE8C078D828E838FF06F
:100297001218CAFD600DBD0102801ABD0202802B33
:1002A700020338753602E4F53790F0DE75F0001278
:1002B7000BF502033890DE00E0FD7E00753828E478
:1002C700F5398D828E83120C48806674022AFDE40C
:1002D7003BFE8C078D828E838FF01218CAFDA31206
:1002E70018CAFE74062AFFE43BF88C018F828883C4
:1002F70089F01218CAF538A31218CAF5398D828EFB
:1003070083120C48802B74042AFAE43BFB8A828B05
:10031700838CF01218CAFAA31218CAFBEA540F60AA
:1003270010120D6190F16CE0FA5302FD90F16CEA46
:10033700F09000002243FD0FC280C281C282C283B7
:1003470043FE03C2902253BEFBE5BE30E6FB53C615
:10035700B8E5C620E6FB43BE04E5BE30E6FB221245
:10036700034D02033C90F000740BF090F0017448C9
:10037700F090F0027441F090F003744CF090F004A8
:10038700744CF090F005744FF090F0067443F090C1
:10039700F0077443F090F0087431F090F00974316D
:1003A700F090F00A7431F090F00B7431F090F00C8B
:1003B700E4F0120366120BE41203D2D2AF12020F5B
:1003C7001205891216A712021080F8750E00750F14
:1003D70082E4F51090F00E75F000121892750E0079
:1003E700750F41E4F51090F09475F0001218929093
:1003F700DF2FE4F090DF30F090DF31F090DF007412
:100407000CF090DF01744EF090DF0274FFF090DF84
:10041700037440F090DF047401F090DF05E4F0907E
:10042700DF06F090DF077406F090DF08E4F090DF56
:10043700097424F090DF0A743AF090DF0B74F1F03E
:1004470090DF0C74CAF090DF0D74A3F090DF0E7488
:1004570003F090DF0F7423F090DF107411F090DF3A
:10046700117436F090DF127407F090DF13743CF0CC
:1004770090DF147418F090DF157417F090DF16747E
:100487006CF090DF177403F090DF187440F090DF82
:10049700197491F090DF1A7456F090DF1B7410F006
:1004A70090DF1C74E9F090DF1D742AF090DF1EE4E2
:1004B700F090DF1F741FF090DF237481F090DF242A
:1004C7007435F090DF257409F090DF2E7450F0D268
:1004D700A87591FF75E900750D00439A010204E7BD
:1004E70075E10490DF3BE0FA30E0F890F0D5740353
:1004F700F0227A007B00C3EA94DCEB940550249049
:10050700DF3CE0FC5450600490000122900032C0B0
:1005170002C00312083BD003D00274322AFAE43B2C
:10052700FB80D390000022AA82AB83C002C00312D3
:1005370004E7750E00750F41E4F51090F09475F01F
:1005470000121892D003D0028A0E8B0F75100090FC
:10055700F09475F00012185290F17DE4F075E10205
:1005670090DF3BE0FA540D60F790DF3CE0FA54501F
:1005770060F775E10390DF3BE0FA541360F775828B
:100587000022750E00750F41E4F51090F00E75F01E
:100597000012189290F090E4F090F091F090F092A1
:1005A700F090F0937401F090F00DE4F0539BFC533E
:1005B700E9EF75E102439110225391EF1204E743EB
:1005C700D68153D1FE539BFC53E9EF2290F0D5E03F
:1005D700FABA01012290F0D57401F002058990F072
:1005E700D5E0FABA01091205C090F0D57403F022DC
:1005F700C0E0C0F0C082C083C002C003C004C00511
:10060700C006C007C0D075D00090F0DF7411F0901D
:10061700DF3BE0FABA0D5890F00DE075F041A424E5
:100627000EFAE434F0FB90F00DE02490FCE434F093
:10063700FD8C828D83E0FE04FF8C828D83F0EE2A91
:10064700F582E43BF583E5D9F090F00DE02490F5D1
:1006570082E434F0F583E0FABA4100404590F00DAA
:10066700E0FA2490F582E434F0F583E4F0803390E7
:10067700DF3BE0FABA132B90F17DE02494FAE434DF
:10068700F0FB8A828B83E0601990F17DE0FA90F1AC
:100697007DE02401F0EA2494F582E434F0F583E068
:1006A700F5D9C289D0D0D007D006D005D004D00361
:1006B700D002D083D082D0F0D0E032C020C0E0C0DA
:1006C700F0C082C083C002C003C004C005C006C01A
:1006D70007C000C001C0D075D00090F0DF7410F0E3
:1006E700539BFCE5E9420DE5E930E60BD2831205A1
:1006F700C01205890207F4E5E930E7061204E702AC
:1007070007F4E5E920E4030207B690F0D5E0FABA6A
:10071700020643D6810207F490F00DE0FAB4010017
:10072700E4332492F582E434F0F583E0FABA014A1F
:1007370090F00DE0FAB40100E43375F041A4240E03
:10074700FAE434F0FB7C00750E00750F41E4F510F8
:100757008A828B838CF012189290F00DE06401F07E
:1007670090F00DE0FA2490F582E434F0F583E4F09C
:1007770090F092F090F093F0807390F00DE075F0A8
:1007870041A4240EFAE434F0FB7C00750E00750FCB
:1007970041E4F5108A828B838CF012189290F00D49
:1007A700E0FA2490F582E434F0F583E4F0803EE546
:1007B700E930E00B10830280028032D283802EE57D
:1007C700E930E10B10820280028022D282801EE58E
:1007D700E930E20B10810280028012D281800EE59F
:1007E700E930E30910800280028002D28075E900B7
:1007F700D0D0D001D000D007D006D005D004D00388
:0D080700D002D083D082D0F0D0E0D02032DB
:0118FE0000E9
:10081400AA82AB831ABAFF011BC3E49A74808BF0DB
:1008240063F08095F0500F7CB07D041CBCFF011D6B
:10083400EC4D70F780DE22AA82AB831ABAFF011B4B
:10084400C3E49A74808BF063F08095F040ED22123B
:100854000100020200004051041547010001020397
:10086400010902200001010080FA0904000002FFCE
:10087400FF010007058502F4010107050502400098
:10088400010403090424032200220022002200227E
:100894000022002200220022002200220022002244
:1008A400002200220022002200260322002200222D
:1008B4000022002200220022002200220022002224
:1008C400002200220022002200220022002200082E
:1008D4000322002200220000FF22AA82AB83D290CE
:1008E4008A828B83120814C2908522828523830214
:1008F4000814AA82AB83C2AFD2909003E8C002C0AE
:1009040003120814C2909001F4120814D003D00208
:100914001524AC24EC20E754EA30E024900019C0FC
:1009240002C003C004120814D290900226120814C4
:10093400C290900019120814D004D003D00280226F
:10094400900113C002C003C004120814D290900096
:1009540032120814C290900113120814D004D00368
:10096400D002EBC313CA13CAFB1C80A8C290900325
:10097400E8120814D2AF22AA827B0190DE0E74051D
:10098400F0E52A452B7001227C647D0090F17AE029
:10099400FE30E02CEC4D6028D290900002C002C0E2
:1009A40003C004C005120814C29090000A1208146F
:1009B400D005D004D003D00290F0DF7401F080CCD5
:1009C400BB01307B0090DE2A7440F0EAF0E529F0A8
:1009D400AE2A7F0090DE2AEEF0E52BF0C374EF958B
:1009E4002A7401952B50067CEF7D01801BAC2AAD47
:1009F4002B8015C374F4952A7401952B50067CF44E
:100A04007D018004AC2AAD2BE52AC39CF52AE52B95
:100A14009DF52BAE2CAF2DA82EEC4D60027401F980
:100A240060218E828F8388F01218CAF9A3AE82AF38
:100A3400838E2C8F2D882E90DE2AE9F01CBCFF01BA
:100A44001D80D68E2C8F2D882E90DE11E04401F06F
:100A540090F17AE0FC43040190F17AECF00209850C
:100A640022AA82AB837C007D008A068B078E828F4C
:100A740083E493F8A3AE82AF83E860070CBC00ED77
:100A84000D80EA8A2C8B2D752E807529F08C2A8D89
:100A94002B7582FE02097B85822F752C2F752D0004
:100AA400752E407529F1752A01E4F52B7582FE0235
:100AB400097B858230858331752C30752D00752E28
:100AC400407529F2752A02E4F52B7582FE02097B32
:100AD40085823285833385F034F535752C32752D56
:100AE40000752E407529F3752A04E4F52B7582FEF2
:100AF40002097B90DE00E0FA700F90F17CE0FABA14
:100B0400010050051216A780EA7522C8E4F5239067
:100B140000C80208DE53BE7F43BE8090DE01E0546D
:100B2400FEF075280075260075270075250090DEF7
:100B34000EE4F090DE107408F090DE137408F09068
:100B4400F16DE4F090F16CF090F163F0A3F090F1AA
:100B54006574E0F0A374F0F0A3E4F090F168F0A3FE
:100B6400F090F16A7440F0A3E4F090DE0E7405F0A6
:100B740090DE10743FF090DE137408F090DE15E000
:100B84004480F090DE12E04480F090F17BE4F09039
:100B9400F17AF090F171F0A3F090F1737420F0A366
:100BA40074F1F0A3E4F090F176F0A3F090F178748E
:100BB40040F0A3E4F090DE0B74F7F090DE0774FFCE
:100BC400F090DE0974FFF0438C10538CFED2BD43C9
:100BD4009A02758900C2C5758B00C2E8439A022245
:100BE40090F0DE7402F043BE80120B19D290D2AFA3
:100BF40022AA82AB83ACF090F16DE060287522E804
:100C04007523039003E81208DE7522E87523039028
:100C140003E81208DE7522E87523039003E812083E
:100C2400DE90FFFF2290F160EAF0A3EBF0A3ECF07A
:100C340090F163E536F0A3E537F090F16D7401F0BF
:100C440090000022AA82AB8390F16DE060287522A7
:100C5400E87523039003E81208DE7522E875230380
:100C64009003E81208DE7522E87523039003E81266
:100C740008DE90FFFF227C0090F160EAF0A3EBF025
:100C8400A3ECF090F163E538F0A3E539F090F16D51
:100C94007401F090000022AA82AB83ACF090F17B47
:100CA400E0600490FFFF2290F16EEAF0A3EBF0A362
:100CB400ECF090F171E50EF0A3E50FF090F17B7488
:100CC40001F0900000227A0290DE0EE4F090F163CD
:100CD400E0FBA3E0FCC374409BE49C50047D408093
:100CE400048B057A0A8D067F00EBC39EFBEC9FFC08
:100CF40090F163EBF0A3ECF08D03EB60047C0180D6
:100D0400027C00EC603690F160E0FCA3E0FDA3E01F
:100D1400FE8C828D838EF01218CA90DE20F090F142
:100D240060E0FCA3E0FDA3E0FE0CBC00010D90F12B
:100D340060ECF0A3EDF0A3EEF01B80BE90DE11E0BA
:100D44004AF090F163E0FAA3E0FB4A700590F16D7C
:100D5400E4F02290F16D7402F07582002290F16546
:100D6400E0FAA3E0FBA3E0FC90DE16E0FD7E009039
:100D7400F168EDF0A3EEF090F16CE0FD30E10A9043
:100D8400F16D7403F090FFFF2290F16CE0FD4305D8
:100D94000290F16CEDF090F168E0FDA3E0FEC37405
:100DA400409DE49E500990F1687440F0A3E4F090F3
:100DB400F168E0FDA3E0FEED4E60047F0180027F58
:100DC40000EF601A90DE20E0FF8A828B838CF012A1
:100DD40018B1A3AA82AB831DBDFF011E80D990F177
:100DE40068E0FAA3E0FBC3EA9440EB9400500312DA
:100DF400027790F168E0FAA3E08A82F5832290F109
:100E040073E0FAA3E0FBA3E0FC90DE0E7405F0901F
:100E1400DE17E0FE7D0090DE16E0FF7800EF2DFD8A
:100E2400E83EFE90F176EDF0A3EEF090F17AE0FD6D
:100E340030E11190DE14E04420F090F17B7403F073
:100E440090FFFF2290F17AE0FD43050290F17AEDE4
:100E5400F090F176E0FDA3E0FE90F178E0FFA3E0EE
:100E6400F8C3EF9DE89E500890F176EFF0A3E8F008
:100E740090F176E0FDA3E0FEED4E60047F01800278
:100E84007F00EF601A90DE2AE0FF8A828B838CF069
:100E94001218B1A3AA82AB831DBDFF011E80D99095
:100EA400DE14E054FEF090F176E0FAA3E08A82F5D5
:100EB4008322753601E4F53790002875F040020B63
:100EC400F5AA82AB83ACF074022AFAE43BFB8A8273
:100ED4008B838CF01218CAFAA31218CA8A282285A6
:100EE400820F7B537C087D8074012BFEE43CFF8DD4
:100EF400008E828F8388F01218CAFEAF0EBEFF02E6
:100F04008052EEB50F2BEF70047EFF80F01F8B82B2
:100F14008C838DF01218CA2BFBE43CFC74012BF873
:100F2400E43CF98D02888289838AF01218CAFE8013
:100F3400CC8B828C838DF01218CA2BFBE43CFC749E
:100F4400012BFAE43CF88D018A82888389F0121817
:100F5400CAFE80A98B828C838DF02285823A858398
:100F64003B85F03C7402253AF544E4353BF5458570
:100F74003C468544828545838546F01218CAF8A309
:100F84001218CAF989427543007401B54206E4B5E2
:100F94004302801A7402B54206E4B54302802C74FD
:100FA40003B54207E4B5430302104D02106A898277
:100FB400750E00120EE385823D85833E85F03F1257
:100FC40018CAFA8A40754100021083898288048C09
:100FD4000E120EE385823D85833E85F03F74022523
:100FE4003DFCE4353EFDAE3F8C828D838EF01218BD
:100FF400CAFC8C407541008544828545838546F052
:101004001218CAA31218CAFC7D007401253DFEE41F
:10101400353EFFAA3F8E828F838AF01218CAFE7A69
:1010240000ECB50606EDB502028054854482854580
:10103400838546F01218CAFAA31218CAFB75241045
:101044008A828B831208F680E2898288028A0E12D1
:101054000EE385823D85833E85F03F1218CAFA8AE5
:101064004075410080198982880E120EE385823D05
:1010740085833E85F03F1218CAFA8A407541007490
:1010840006253AFAE4353BFBAC3C8A828B838CF030
:101094001218CAFAA31218CAFBC3EA9540EB954189
:1010A40050048A408B41854036854137853D828591
:1010B4003E83853FF0120BF5854482854583854642
:1010C400F01218CAA31218CAFA7B00BA021BBB009A
:1010D40018D290900002120814C29090000A1208CC
:1010E4001490F17CE0FA4401F02290DE0EE4F090DA
:1010F400DE11E0FA30E40D90F16DE4F090DE11E0E1
:10110400FB4480F0EA30E22090DE11E4F090F0DF5E
:101114007404F090F16DE4F07522C8E4F5239000B6
:10112400C8C0021208DED00290F16DE0FBBB0315CB
:101134007522F47523019001F4C0021208DED00276
:1011440090F16DE4F090F16DE0600302134FEA203A
:10115400E00302134F90DE0EE4F07A007B477C003C
:101164007D40BA0800501690DE20E0FE8B828C830E
:101174008DF01218B1A3AB82AC830A80E5E547FA7F
:1011840020E70302127174605AFB6015BB2003024E
:101194001339BB4003021252BB600302125E0213F6
:1011A40039741F5AFB7046AC48BC0002801CBC0654
:1011B400028005BC082B800C90004775F040120F8C
:1011C4005F021339120EB6021339E4F54FF5507568
:1011D4003602E4F53790004F75F040120BF5021318
:1011E4003990004775F040120A64021339BB011AA2
:1011F400AC48BC0003021339BC0A03021339900043
:101204004775F040120A64021339BB022DAC48BC86
:1012140000028008BC12030213398012753602E4FE
:10122400F5379018EA75F080120BF5021339900027
:101234004775F040120A6402133990004775F04074
:10124400120A6490DE11E0FC4420F002133990008D
:101254004775F04012027802133990DE11E0442001
:10126400F090004775F040120A6402133974605A12
:10127400FC6015BC2003021339BC400302131DBCDF
:101284006003021328021339741F5AFB703FAA48E3
:10129400BA0103021339BA0303021339BA050280EF
:1012A4000BBA0703021339BA0917800990DE00E567
:1012B40049F002133990004775F040120EC502132D
:1012C4003990004775F040120A64021339BB011DBE
:1012D400AA48BA0103021339BA03028058BA1102A8
:1012E400805390004775F040120A648048BB02178F
:1012F400AA48BA0102803EBA0302803990004775B9
:10130400F040120A64802E90DE11E04420F0900038
:101314004775F040120A64801C90004775F0401233
:101324000278801190004775F040120A6490DE1133
:10133400E0FA4420F090DE11E0FA4440F0E54D4537
:101344004E700890DE11E0FA4408F090F16DE0FA76
:10135400BA0103120CCA90F16DE0FABA0203020D4D
:10136400612290DE0E7405F090F17AE0FA30E11417
:1013740090F17B7403F090DE14E04420F090F0DFF1
:101384007405F02290F17AE0FA43020290F17AEACD
:10139400F090DE17E0FB7A0090DE16E0FC7D00ECB6
:1013A4002AF553ED3BF554C374409553E4955450DA
:1013B4001990F17B7403F090DE14E04420F0752260
:1013C400C8E4F52390012C0208DE90F173E0FCA33D
:1013D400E0FDA3E0FE8C078D008F59885AA953AA1B
:1013E40054E94A60047B0180027B00EB601A90DEC2
:1013F4002AE0FB855982855A83F0A3858259858327
:101404005A19B9FF011A80D990F176E553F0A3E592
:1014140054F0C3E5539408E554940050030216991C
:1014240074042CFAE43DFB8E018A828B8389F012CA
:1014340018CAF55674052CFBE43DF98E028B82899B
:10144400838AF01218CAF55574062CFFE43DF88F10
:10145400828883E0FBA38B53755400E0FBA3AF8227
:10146400A8838B047B00EB2553F553EC3554F554DA
:1014740074FFB5560280030216947480B555028039
:101484002B7481B5550302150C7482B555030215EE
:10149400FA7483B555030216127484B55503021504
:1014A4008D7485B5550302162C02166F8F828883BE
:1014B400E0FBA38B53755400E0FBA3AF82A8838B9E
:1014C400047B00EB2553F553EC3554F5548F828897
:1014D40083E0FBA38B51755200E0FE7D00ED2551A6
:1014E400F551EE3552F55285515785525885572C92
:1014F40085582D752E0085552985532A85542B85AD
:10150400568212097B0216858F828883E0F9A389AB
:1015140051755200E0F9A3AF82A88389037900E9E9
:101524002551F551EB3552F5528551578552588F57
:1015340003880485575985585A755102E4F552C3F6
:10154400E5519553E552955450248B828C83E0FAEF
:10155400A3AB82AC83855982855A83EAF0A3858242
:101564005985835A0551E4B551D5055280D1752C5E
:10157400ED752D18752E80855529752A01E4F52BF6
:1015840085568212097B0216858F828883E0FAA32E
:101594008A51755200E0FAA3AF82A8838A037A00C5
:1015A400EA2551F551EB3552F5528551578552587C
:1015B4008F0288037C027900C3EC9553E99554505B
:1015C4001A8A828B83E0FDA3AA82AB838557828526
:1015D4005883EDF00CBC00E00980DD752CEF752D0F
:1015E40018752E80855529752A01E4F52B855682B8
:1015F40012097B0216858F2C882D752E008555299E
:1016040085532A85542B85568212097B8073752C49
:10161400F0752D18752E80855529752A0DE4F52B46
:1016240085568212097B80598F828883E0FAA3AFA2
:1016340082A883BA0102800ABA0202801FBA032B6D
:10164400800DC007C0001205D3D000D007801CC095
:1016540007C0001205E5D000D007800F8F82888371
:10166400C007C00012052ED000D0078F2C882D751E
:101674002E0085552985532A85542B8556821209B7
:101684007B90F17AE0FA5302FD90F17AEAF0800B54
:10169400120266800690F0DF7407F090DE14E054C6
:1016A400FEF022E52630E4111210EE74E75526FA16
:1016B400740F5527FB8A268B27AA26AB27EA30E02E
:1016C4001175250174FE5526FCAD278C268D274304
:1016D400BE01EA5406602C90F0DE740AF07525020F
:1016E40074FD5526FAAB278A268B2790DE01E04449
:1016F40004F090000812081490DE01E0FA54FBF0A4
:10170400752500E52620E2057403B52514120B198E
:1017140090F0DE740BF074FB5526FAAB278A268B07
:1017240027E52730E63590F0DE740CF090F17BE08D
:10173400FABA031990F0DF7408F090F17BE4F090AA
:10174400DE0E7405F090DE14E0FA549FF012136676
:10175400AA2674BF5527FB8A268B27AA26AB27EA1D
:1017640054E07005EB54BD601E90F0DF7409F07511
:1017740024108A828B831208F674E05526FA74BD0D
:101784005527FB8A268B2774FFB52513D29090002A
:1017940002120814C29090000A120814752500223F
:1017A400C0E0C082C083C002C003C004C005C0D072
:1017B40075D000E5BE30E6FBC2AF90DE06E0FA7BF2
:1017C40000E5264202E52742038A268B2790DE02A3
:1017D400E0FCE4C454F0CCC4CC6CCC54F0CC6CFD30
:1017E400EC4202ED42038A268B2790DE04E025E0DA
:1017F400FDE4FC4202ED42038A26EBF52730E118B2
:1018040090F17AE0FA5302FE90F17AEAF0AA267493
:10181400FD5527FB8A268B27758B00C2E8D2AFD0F3
:10182400D0D005D004D003D002D083D082D0E0320F
:10183400C0E0E5BE30E6FBC2AFE58930E7037525BD
:0E1844000253BEFC758900C2C5D2AFD0E0329F
:1018EA00000000300000554E494D504C454D454EC4
:0418FA00544544000D
:1018520085821185831285F013AD0EAE0FAF10A8ED
:1018620011A912AA138D828E838FF01218CAFBA3BC
:10187200AD82AE83888289838AF0EB1218B1A3A865
:1018820082A983EB70DF8511828512838513F02292
:0600BA00E478FFF6D8FD1A
:10189200AC82AD83AE0FAF10BE0004EF600C1F0F21
:0F18A200E50E1218B1A3DEFADFF88C828D8322D7
:100098007901E94400601B7A019018FE787D759318
:1000A800F1E493F2A308B800020593D9F4DAF275E3
:0200B80093FFB4
:1018B10020F71030F6118883A88220F507F6A88357
:0918C10075830022F280F7F02289
:1000C0007800E84400600A79007593F0E4F309D8F9
:1000D000FC787DE84401600C790290F000E4F0A324
:0400E000D8FCD9FA75
:0D008B0075815A1218E6E5826003020086B6
:1018CA0020F71430F6148883A88220F507E6A88347
:1018DA0075830022E280F7E49322E02275820022D7
:00000001FF
