:060000000201490214C4D4
:01000B0032C2
:0100130032BA
:01001B0032B2
:0100230032AA
:01002B0032A2
:03003300021AFDB1
:01003B003292
:01004300328A
:01004B003282
:01005300327A
:01005B003272
:01006300326A
:01006B003262
:01007300325A
:01007B003252
:0300830002158FD4
:0301A200020086D2
:0500860012023A80FEA9
:1001A50022E50A605890F17B740DF0539AFEE50A3A
:1001B50030E44490F0AAE0FAB40100E433FA242FC5
:1001C500FBE434F1FC8B828C83E0702BEA75F04103
:1001D500A424ABFBE434F0FC7D008B828C838DF092
:1001E500C002121D09121B92D002EA242FF582E4E7
:1001F50034F1F5837401F0750A00439A01229000E9
:100205000022229000002243FD0FC280C281C282DB
:10021500C28343FE032253BEFBE5BE30E6FB53C655
:10022500B8E5C620E6FB43BE04E5BE30E6FB221278
:10023500021B02020C90F000740BF090F001744860
:10024500F090F0027441F090F003744CF090F004DB
:10025500744CF090F005744FF090F0067443F090F4
:10026500F0077443F090F0087431F090F0097431A0
:10027500F090F00A7431F090F00B7431F090F00CBE
:10028500E4F0120234121CC412129F121D36D2AFB2
:100295001201A51214561201A680FB1201000202DA
:1002A5000000405104154701000102030109022025
:1002B5000001010080FA0904000002FFFF010007A8
:1002C500058502F401010705050240000104030943
:1002D5000424032200220022002200220022002200
:1002E50000220022002200220022002200220022F9
:1002F50000220022002603220022002200220022E2
:1003050000220022002200220022002200220022D8
:1003150000220022002200220022000803220022DF
:1003250000220000FF22AA82AB83D2908A828B83AF
:10033500121D42C290852282852383021D42AA8214
:10034500AB83C2AFD2909003E8C002C003121D4236
:10035500C2909001F4121D42D003D0021524AC24A2
:10036500EC20E754EA30E024900019C002C003C035
:1003750004121D42D290900226121D42C290900096
:1003850019121D42D004D003D0028022900113C05F
:1003950002C003C004121D42D290900032121D42C9
:1003A500C290900113121D42D004D003D002EBC3BA
:1003B50013CA13CAFB1C80A8C2909003E8121D4201
:1003C500D2AF22AA827B0190DE0E7405F0E52A45A4
:1003D5002B7001227C647D0090F0A7E0FE30E02CBC
:1003E500EC4D6028D290900002C002C003C004C04A
:1003F50005121D42C29090000A121D42D005D0047C
:10040500D003D00290F17C7401F080CCBB01307B2D
:100415000090DE2A7440F0EAF0E529F0AE2A7F006C
:1004250090DE2AEEF0E52BF0C374EF952A74019562
:100435002B50067CEF7D01801BAC2AAD2B8015C3AC
:1004450074F4952A7401952B50067CF47D01800483
:10045500AC2AAD2BE52AC39CF52AE52B9DF52BAEE1
:100465002CAF2DA82EEC4D60027401F960218E820F
:100475008F8388F0121DF9F9A3AE82AF838E2C8F7E
:100485002D882E90DE2AE9F01CBCFF011D80D68E3A
:100495002C8F2D882E90DE11E04401F090F0A7E01E
:1004A500FC43040190F0A7ECF00203D222AA82AB30
:1004B500837C007D008A068B078E828F83E493F808
:1004C500A3AE82AF83E860070CBC00ED0D80EA8A1D
:1004D5002C8B2D752E807529F08C2A8D2B7582FE1F
:1004E5000203C885822F752C2F752D00752E40753A
:1004F50029F1752A01E4F52B7582FE0203C8858270
:1005050030858331752C30752D00752E407529F297
:10051500752A02E4F52B7582FE0203C885823285B1
:10052500833385F034F535752C32752D00752E40E5
:100535007529F3752A04E4F52B7582FE0203C8902C
:10054500DE00E0FA700F90F0A9E0FABA010050055C
:100555001210F480EA7522C8E4F5239000C802035E
:100565002B53BE7F43BE8090DE01E054FEF075281C
:100575000075260075270075250090DE0EE4F090C5
:10058500DE107408F090DE137408F090F09AE4F031
:1005950090F099F090F090F0A3F090F092740DF037
:1005A500A374F0F0A3E4F090F095F0A3F090F09729
:1005B5007440F0A3E4F090DE0E7405F090DE107444
:1005C5003FF090DE137408F090DE15E04480F09063
:1005D500DE12E04480F090F0A8E4F090F0A7F090EF
:1005E500F09EF0A3F090F0A0744DF0A374F0F0A38A
:1005F500E4F090F0A3F0A3F090F0A57440F0A3E42C
:10060500F090DE0B74F7F090DE0774FFF090DE09D2
:1006150074FFF0438C10538CFED2BD439A0275894A
:1006250000C2C5758B00C2E8439A022290F17B7423
:1006350002F043BE80120566D290D2AF22AA82ABE9
:1006450083ACF090F09AE060287522E8752303905A
:1006550003E812032B7522E87523039003E81203C0
:100665002B7522E87523039003E812032B90FFFFF7
:100675002290F08DEAF0A3EBF0A3ECF090F090E57A
:1006850036F0A3E537F090F09A7401F0900000225F
:10069500AA82AB8390F09AE060287522E87523035F
:1006A5009003E812032B7522E87523039003E812E3
:1006B500032B7522E87523039003E812032B90FFA3
:1006C500FF227C0090F08DEAF0A3EBF0A3ECF09014
:1006D500F090E538F0A3E539F090F09A7401F090C8
:1006E500000022AA82AB83ACF090F0A8E0600490F1
:1006F500FFFF2290F09BEAF0A3EBF0A3ECF090F063
:100705009EE50DF0A3E50EF090F0A87401F09000C1
:1007150000227A0290DE0EE4F090F090E0FBA3E078
:10072500FCC374409BE49C50047D4080048B057A97
:100735000A8D067F00EBC39EFBEC9FFC90F090EBCF
:10074500F0A3ECF08D03EB60047C0180027C00ECEF
:10075500603690F08DE0FCA3E0FDA3E0FE8C828D79
:10076500838EF0121DF990DE20F090F08DE0FCA351
:10077500E0FDA3E0FE0CBC00010D90F08DECF0A3B4
:10078500EDF0A3EEF01B80BE90DE11E04AF090F094
:1007950090E0FAA3E0FB4A700590F09AE4F022900D
:1007A500F09A7402F07582002290F092E0FAA3E0CC
:1007B500FBA3E0FC90DE16E0FD7E0090F095EDF0E9
:1007C500A3EEF090F099E0FD30E10A90F09A740301
:1007D500F090FFFF2290F099E0FD43050290F0991B
:1007E500EDF090F095E0FDA3E0FEC374409DE49E1E
:1007F500500990F0957440F0A3E4F090F095E0FD79
:10080500A3E0FEED4E60047F0180027F00EF601AD9
:1008150090DE20E0FF8A828B838CF0121DE0A3AA74
:1008250082AB831DBDFF011E80D990F095E0FAA330
:10083500E0FBC3EA9440EB9400500312020790F0EA
:1008450095E0FAA3E08A82F5832290F0A0E0FAA36E
:10085500E0FBA3E0FC90DE0E7405F090DE17E0FEF1
:100865007D0090DE16E0FF7800EF2DFDE83EFE905E
:10087500F0A3EDF0A3EEF090F0A7E0FD30E11190CC
:10088500DE14E04420F090F0A87403F090FFFF22FE
:1008950090F0A7E0FD43050290F0A7EDF090F0A3DE
:1008A500E0FDA3E0FE90F0A5E0FFA3E0F8C3EF9D17
:1008B500E89E500890F0A3EFF0A3E8F090F0A3E0D5
:1008C500FDA3E0FEED4E60047F0180027F00EF6036
:1008D5001A90DE2AE0FF8A828B838CF0121DE0A33A
:1008E500AA82AB831DBDFF011E80D990DE14E054A2
:1008F500FEF090F0A3E0FAA3E08A82F58322753634
:1009050001E4F53790002875F040020642AA82AB53
:1009150083ACF074022AFAE43BFB8A828B838CF069
:10092500121DF9FAA3121DF98A282285820E7BA0D1
:100935007C027D8074012BFEE43CFF8D008E828F4E
:100945008388F0121DF9FEAF0DBEFF028052EEB591
:100955000E2BEF70047EFF80F01F8B828C838DF051
:10096500121DF92BFBE43CFC74012BF8E43CF98DDA
:1009750002888289838AF0121DF9FE80CC8B828CD5
:10098500838DF0121DF92BFBE43CFC74012BFAE47A
:100995003CF88D018A82888389F0121DF9FE80A9B1
:1009A5008B828C838DF02285823A85833B85F03C52
:1009B5007402253AF544E4353BF545853C468544C6
:1009C500828545838546F0121DF9F8A3121DF9F9B4
:1009D50089427543007401B54206E4B54302801AA5
:1009E5007402B54206E4B54302802C7403B5420790
:1009F500E4B54303020A9A020AB78982750D00120B
:100A0500093085823D85833E85F03F121DF9FA8ABE
:100A150040754100020AD0898288048C0D12093084
:100A250085823D85833E85F03F7402253DFCE43596
:100A35003EFDAE3F8C828D838EF0121DF9FC8C40FD
:100A45007541008544828545838546F0121DF9A3CD
:100A5500121DF9FC7D007401253DFEE4353EFFAA1B
:100A65003F8E828F838AF0121DF9FE7A00ECB5065F
:100A750006EDB5020280548544828545838546F09E
:100A8500121DF9FAA3121DF9FB7524108A828B83B6
:100A950012034380E2898288028A0D120930858219
:100AA5003D85833E85F03F121DF9FA8A4075410068
:100AB50080198982880D12093085823D85833E859E
:100AC500F03F121DF9FA8A407541007406253AFA7D
:100AD500E4353BFBAC3C8A828B838CF0121DF9FA22
:100AE500A3121DF9FBC3EA9540EB954150048A40DA
:100AF5008B41854036854137853D82853E83853FDF
:100B0500F01206428544828545838546F0121DF91B
:100B1500A3121DF9FA7B00BA021BBB0018D29090F4
:100B25000002121D42C29090000A121D4290F0A9C7
:100B3500E0FA4401F02290DE0EE4F090DE11E0FAD6
:100B450030E40D90F09AE4F090DE11E0FB4480F083
:100B5500EA30E22090DE11E4F090F17C7404F0902C
:100B6500F09AE4F07522C8E4F5239000C8C002129B
:100B7500032BD00290F09AE0FBBB03157522F475A8
:100B850023019001F4C00212032BD00290F09AE4E5
:100B9500F090F09AE06003020D9CEA20E003020D5C
:100BA5009C90DE0EE4F07A007B477C007D40BA081D
:100BB50000501690DE20E0FE8B828C838DF0121D96
:100BC500E0A3AB82AC830A80E5E547FA20E70302A0
:100BD5000CBE74605AFB6015BB2003020D86BB403A
:100BE50003020C9FBB6003020CAB020D86741F5AF7
:100BF500FB7046AC48BC0002801CBC06028005BCEC
:100C0500082B800C90004775F0401209AC020D8648
:100C1500120903020D86E4F54FF550753602E4F529
:100C25003790004F75F040120642020D869000473E
:100C350075F0401204B1020D86BB011AAC48BC0028
:100C450003020D86BC0A03020D8690004775F0402D
:100C55001204B1020D86BB022DAC48BC000280080F
:100C6500BC1203020D868012753602E4F537901E1C
:100C75001975F080120642020D8690004775F04006
:100C85001204B1020D8690004775F0401204B19030
:100C9500DE11E0FC4420F0020D8690004775F0401F
:100CA500120208020D8690DE11E04420F090004704
:100CB50075F0401204B1020D8674605AFC6015BCD3
:100CC5002003020D86BC4003020D6ABC6003020DC1
:100CD50075020D86741F5AFB703FAA48BA010302BC
:100CE5000D86BA0303020D86BA0502800BBA070307
:100CF500020D86BA0917800990DE00E549F0020D5C
:100D05008690004775F040120912020D8690004743
:100D150075F0401204B1020D86BB011DAA48BA0147
:100D250003020D86BA03028058BA1102805390005F
:100D35004775F0401204B18048BB0217AA48BA01B2
:100D450002803EBA0302803990004775F0401204D4
:100D5500B1802E90DE11E04420F090004775F04000
:100D65001204B1801C90004775F0401202088011F2
:100D750090004775F0401204B190DE11E0FA44206E
:100D8500F090DE11E0FA4440F0E54D454E700890D4
:100D9500DE11E0FA4408F090F09AE0FABA01031285
:100DA500071790F09AE0FABA02030207AE2290DE26
:100DB5000E7405F090F0A7E0FA30E11490F0A874F5
:100DC50003F090DE14E04420F090F17C7405F022ED
:100DD50090F0A7E0FA43020290F0A7EAF090DE1740
:100DE500E0FB7A0090DE16E0FC7D00EC2AF553ED81
:100DF5003BF554C374409553E49554501990F0A8AD
:100E05007403F090DE14E04420F07522C8E4F52365
:100E150090012C02032B90F0A0E0FCA3E0FDA3E0E1
:100E2500FE8C078D008F59885AA953AA54E94A6048
:100E3500047B0180027B00EB601A90DE2AE0FB85D3
:100E45005982855A83F0A385825985835A19B9FF3A
:100E5500011A80D990F0A3E553F0A3E554F0C3E55A
:100E6500539408E554940050030210E674042CFAD8
:100E7500E43DFB8E018A828B8389F0121DF9F556BC
:100E850074052CFBE43DF98E028B8289838AF0126E
:100E95001DF9F55574062CFFE43DF88F828883E033
:100EA500FBA38B53755400E0FBA3AF82A8838B048F
:100EB5007B00EB2553F553EC3554F55474FFB556CB
:100EC5000280030210E17480B55502802B7481B550
:100ED5005503020F597482B555030210477483B543
:100EE500550302105F7484B55503020FDA7485B596
:100EF50055030210790210BC8F828883E0FBA38B17
:100F050053755400E0FBA3AF82A8838B047B00EBF1
:100F15002553F553EC3554F5548F828883E0FBA3B4
:100F25008B51755200E0FE7D00ED2551F551EE35F2
:100F350052F55285515785525885572C85582D7530
:100F45002E0085552985532A85542B8556821203F3
:100F5500C80210D28F828883E0F9A38951755200A7
:100F6500E0F9A3AF82A88389037900E92551F551FA
:100F7500EB3552F5528551578552588F03880485B4
:100F8500575985585A755102E4F552C3E5519553A1
:100F9500E552955450248B828C83E0FAA3AB82AC46
:100FA50083855982855A83EAF0A385825985835AB8
:100FB5000551E4B551D5055280D1752C1C752D1EF2
:100FC500752E80855529752A01E4F52B85568212E3
:100FD50003C80210D28F828883E0FAA38A51755222
:100FE50000E0FAA3AF82A8838A037A00EA2551F5C7
:100FF50051EB3552F5528551578552588F0288036A
:101005007C027900C3EC9553E99554501A8A828B7A
:1010150083E0FDA3AA82AB83855782855883EDF0D3
:101025000CBC00E00980DD752C1E752D1E752E800B
:10103500855529752A01E4F52B8556821203C802C8
:1010450010D28F2C882D752E0085552985532A851C
:10105500542B8556821203C88073752C1F752D1E5F
:10106500752E80855529752A0DE4F52B8556821236
:1010750003C880598F828883E0FAA3AF82A883BA18
:101085000102800ABA0202801FBA032B800DC00735
:10109500C0001214A0D000D007801CC007C00012E9
:1010A50014B2D000D007800F8F828883C007C0009C
:1010B5001213FBD000D0078F2C882D752E00855577
:1010C5002985532A85542B8556821203C890F0A78B
:1010D500E0FA5302FD90F0A7EAF0800B12020380BC
:1010E5000690F17C7407F090DE14E054FEF022E5E2
:1010F5002630E411120B3B74E75526FA740F552779
:10110500FB8A268B27AA26AB27EA30E01175250135
:1011150074FE5526FCAD278C268D2743BE01EA5467
:1011250006602C90F17B740AF075250274FD552636
:10113500FAAB278A268B2790DE01E04404F0900065
:1011450008121D4290DE01E0FA54FBF0752500E51A
:101155002620E2057403B5251412056690F17B740B
:101165000BF074FB5526FAAB278A268B27E527302B
:10117500E63590F17B740CF090F0A8E0FABA03190B
:1011850090F17C7408F090F0A8E4F090DE0E740500
:10119500F090DE14E0FA549FF0120DB3AA2674BF46
:1011A5005527FB8A268B27AA26AB27EA54E070052C
:1011B500EB54BD601E90F17C7409F07524108A8291
:1011C5008B8312034374E05526FA74BD5527FB8AB9
:1011D500268B2774FFB52513D290900002121D426D
:1011E500C29090000A121D4275250022C0E0C082FF
:1011F500C083C002C003C004C005C0D075D000E5DF
:10120500BE30E6FBC2AF90DE06E0FA7B00E5264283
:1012150002E52742038A268B2790DE02E0FCE4C420
:1012250054F0CCC4CC6CCC54F0CC6CFDEC4202ED4B
:1012350042038A268B2790DE04E025E0FDE4FC428C
:1012450002ED42038A26EBF52730E11890F0A7E07E
:10125500FA5302FE90F0A7EAF0AA2674FD5527FB83
:101265008A268B27758B00C2E8D2AFD0D0D005D0A7
:1012750004D003D002D083D082D0E032C0E0E5BEF6
:1012850030E6FBC2AFE58930E70375250253BEFCA6
:0A129500758900C2C5D2AFD0E03267
:101E1900000000300000554E494D504C454D454E8F
:041E290054454400D8
:10129F00750D00750E82E4F50F90F0AB75F000122E
:1012AF001DC1750D00750E41E4F50F90F13175F00C
:1012BF0000121DC190DF2FE4F090DF30F090DF318E
:1012CF00F090DF00740CF090DF01744EF090DF02AD
:1012DF0074FFF090DF037440F090DF047401F0901E
:1012EF00DF05E4F090DF06F090DF077406F090DF83
:1012FF0008E4F090DF097424F090DF0A743AF0905C
:10130F00DF0B74F1F090DF0C74CAF090DF0D74A353
:10131F00F090DF0E7403F090DF0F7423F090DF1066
:10132F007411F090DF117436F090DF127407F090A3
:10133F00DF13743CF090DF147418F090DF157417FE
:10134F00F090DF16746CF090DF177403F090DF18D5
:10135F007440F090DF197491F090DF1A7456F0908A
:10136F00DF1B7410F090DF1C74E9F090DF1D742AFE
:10137F00F090DF1EE4F090DF1F741FF090DF2374F6
:10138F0081F090DF247435F090DF257409F090DF41
:10139F002E7450F0D2A87591FF75E900750A0043BD
:1013AF009A010213B475E10490DF3BE0FA30E0F8E4
:1013BF0090F1727403F0227A007B00C3EA94DCEBA5
:1013CF009405502490DF3CE0FC54506004900001E1
:1013DF0022900032C002C003121D69D003D00274E4
:1013EF00322AFAE43BFB80D390000022AA82AB831F
:1013FF00C002C0031213B4750D00750E41E4F50F52
:10140F0090F13175F000121DC1D003D0028A0D8BFF
:10141F000E750F0090F13175F000121D8190F19E45
:10142F00E4F075E10290DF3BE0FA540D60F790DFD6
:10143F003CE0FA545060F775E10390DF3BE0FA545B
:10144F001360F775820022750D00750E41E4F50FDC
:10145F0090F0AB75F000121DC190F12DE4F090F1FA
:10146F002EF090F12FF090F1307401F090F0AAE48B
:10147F00F0539BFC53E9EF75E10243911022539116
:10148F00EF1213B443D68153D1FE539BFC53E9EFB4
:10149F002290F172E0FABA01012290F1727401F018
:1014AF0002145690F172E0FABA010912148D90F1FC
:1014BF00727403F022C0E0C0F0C082C083C002C0CB
:1014CF0003C004C005C006C007C0D075D00090F19E
:1014DF007C7411F090DF3BE0FABA0D5890F0AAE05F
:1014EF0075F041A424ABFAE434F0FB90F0AAE024A9
:1014FF002DFCE434F1FD8C828D83E0FE04FF8C82A1
:10150F008D83F0EE2AF582E43BF583E5D9F090F078
:10151F00AAE0242DF582E434F1F583E0FABA410014
:10152F00404590F0AAE0FA242DF582E434F1F583DA
:10153F00E4F0803390DF3BE0FABA132B90F19EE09A
:10154F002431FAE434F1FB8A828B83E0601990F145
:10155F009EE0FA90F19EE02401F0EA2431F582E456
:10156F0034F1F583E0F5D9C289D0D0D007D006D0B9
:10157F0005D004D003D002D083D082D0F0D0E03297
:10158F00C020C0E0C0F0C082C083C002C003C0044E
:10159F00C005C006C007C000C001C0D075D0009004
:1015AF00F17C7410F0539BFCE5E9420AE5E930E663
:1015BF000BD28312148D1214560216C1E5E930E7CF
:1015CF00061213B40216C1E5E920E4030216839054
:1015DF00F172E0FABA020643D6810216C190F0AA60
:1015EF00E0FAB40100E433242FF582E434F1F583FB
:1015FF00E0FABA014A90F0AAE0FAB40100E43375B8
:10160F00F041A424ABFAE434F0FB7C00750D0075B7
:10161F000E41E4F50F8A828B838CF0121DC190F07E
:10162F00AAE06401F090F0AAE0FA242DF582E434E8
:10163F00F1F583E4F090F12FF090F130F08073909A
:10164F00F0AAE075F041A424ABFAE434F0FB7C007F
:10165F00750D00750E41E4F50F8A828B838CF012A5
:10166F001DC190F0AAE0FA242DF582E434F1F58340
:10167F00E4F0803EE5E930E00B1083028002803217
:10168F00D283802EE5E930E10B10820280028022A6
:10169F00D282801EE5E930E20B10810280028012B7
:1016AF00D281800EE5E930E30910800280028002CA
:1016BF00D28075E900D0D0D001D000D007D006D0AD
:1016CF0005D004D003D002D083D082D0F0D0E0D0A8
:0216DF002032B7
:011E2D0000B4
:1016E10090DE077421F090DE097410F090DE0B7427
:1016F10004F02290DE0EE4F090DE11E0FA30E10118
:101701002290F191E0FA90F198F0EA24DF500690EE
:10171100F1987420F090F1997402F090F198E0FB47
:10172100BB2002800B90F199740AF090F18DE4F0E6
:1017310090F198E0FB90F191EAC39BF08B028A0350
:101741001AEB602A90F18EE0FBA3E0FCA3E0FD8B95
:10175100828C838DF0121DF9FE90F18E74012BF0B5
:10176100E43CA3F0A3EDF090DE20EEF080D090DE1B
:101771000EE4F090F199E090DE11F022AA82AB83A1
:101781008B0490F19A74AAF0A37400F0A37480F012
:1017910090F19AE0FBA3E0FDA3E0FE8B828D838EA6
:1017A100F0121DF9FF700122C00774012BF8E43D0E
:1017B100F98E07888289838FF0121DF9F8B504022A
:1017C1008004D007803ED0078A001AE87036BC0238
:1017D1001774022BFBE43DFD8B828D838EF0121D6D
:1017E100F9FB90F191F0800590F191EFF090F19A71
:1017F100E0FBA3E0FDA3E0FE90F18EEBF0A3EDF0A2
:10180100A3EEF02290F19AE0FBA3E0FDA3E0FE8BB2
:10181100828D838EF0121DF9FF90F19AEF2BF0E487
:101821003DA3F0A3EEF002179190DE0EE4F090DEFE
:1018310016E0FA90F19DF090F194E0FBC39A500507
:1018410090F19DEBF090F19DE0FA90F194EBC39A49
:10185100F08A031AEB601F90F195E0FBA3E0FC9086
:10186100DE20E0FD8B828C83F090F19574012BF0EA
:10187100E43CA3F080DB22AA8290F191E0FB90F19D
:101881009104F0EB2492F582E434F1F583EAF0223D
:10189100AA8290F1847401F090DE0074804AF09085
:1018A100DE00E0FA20E7F82290DE0E7405F090DE0B
:1018B100107408F090DE12E04401F090DE0E740422
:1018C100F090DE137408F090DE157401F02290F1AF
:1018D100957485F0A374F1F090F1947408F01218E6
:1018E1002A90F194E0FA60012290F185E0FA30E764
:1018F1001A90F18BE0FBA3E0FC4B600890F18D7432
:1019010001F0801F90F18DE4F0801890F18BE0FBE5
:10191100A3E0FC4B600890F18D7402F0800590F11A
:101921008DE4F090DE0EE4F090F18DE0FB70089014
:10193100DE117448F0800690DE117440F090F18E53
:101941007492F0A374F1F0A3E4F090F191F074605B
:101951005AFB6009BB2003021A1A021A4E53021FD6
:10196100BA0002800FBA01030219E1BA0203021A96
:1019710003021A4E90F186E0FA6017BA050280213F
:10198100BA0602802BBA08028038BA0902803F02E7
:101991001A4E758200121878758200121878021A90
:1019A1004E90F187E0FAA3E08A82121891021A4E52
:1019B10090F187E0FAA3E0FB8A828B8312177D0204
:1019C1001A4E90F197E0F582121878021A4E90F1B2
:1019D10087E0FAA3E090F197EAF01218A9021A4EF3
:1019E10090F186E0FA6005BA0A63800E75820012F2
:1019F1001878758200121878805375820012187851
:101A0100804B90F186E0FA600280427582001218E4
:101A110078758200121878803490F186E0FABA2045
:101A2100028005BA2127801290F1947407F090F199
:101A310095749FF0A374F1F0801390F1917407F005
:101A410090F18E749FF0A374F1F0A3E4F090F18D06
:101A5100E0FABA02012290F18BE0FAA3E0FB90F1E7
:101A610091E0FC7D00C3EA9CEB9D500590F191EA69
:101A7100F00216F490F183E0FA20E0012290F18364
:101A8100E054FEF090DE0EE4F090DE11E0FA30E476
:101A91000B90F18DE4F090DE117480F0EA30E20DEC
:101AA10090F18DE4F090DE11E0FB54FBF090F18DAC
:101AB100E0FBBB010BEA20E107C0021216F4D002E1
:101AC100EA30E03790F18DE0FA6005BA022D80032B
:101AD1000218CF12182A90F194E0FA700590F18D56
:101AE100E4F090DE0EE4F090F18DE0FA700790DE04
:101AF100117448F02290DE117440F022C020C0E041
:101B0100C0F0C082C083C002C003C004C005C006CB
:101B1100C007C000C001C0D075D000C2E890DE028D
:101B2100E0FA90F183E04AF0121A7590DE06E0FACD
:101B310030E2031216E1D0D0D001D000D007D00698
:101B4100D005D004D003D002D083D082D0F0D0E031
:101B5100D0203290DE0E7405F090DE11E0FA30E014
:101B61000A90F183E0FA20E5EA80F62290DE0E7415
:101B710005F090DE11E04401F090F17DE0FAA3E080
:101B8100FB90F17FEAF0A3EBF090F17DE4F0A3F09C
:101B91002290F184E0FA70012290F17DE0FAA3E055
:101BA100FB4A700E90F17FE0FAA3E0FBBA4009BB5B
:101BB1000006121B54021B6D22AA8290F184E0FBE5
:101BC100700122C002121B54D00290DE2AEAF0906A
:101BD100F17DE02401F0A3E03400F090F17DE0FA22
:101BE100A3E0FBBA4006BB0003021B6D2290F1810A
:101BF100E0FAA3E0FB4A704290DE0E7404F090DE3E
:101C010014E0FA20E0047582FF2290DE17E0FB7AEF
:101C11000090DE16E0FC7D004202ED420390F1816E
:101C2100EAF0A3EBF0EA4B701190DE0E7404F09031
:101C3100DE14E054FEF07582FF2290F181E024FF72
:101C4100FAA3E034FFFB90F181EAF0A3EBF090DE20
:101C510028E0FA90F181E0FBA3E0FC4B700E90DEEE
:101C61000E7404F090DE14E0FB54FEF08A8222121E
:101C71001BEEAA828A03BAFF0A90DE04E0FA20E48E
:101C8100EE80F68B822243BE801218A91216E14320
:101C91009A0290DE06E4F090DE04F090DE02F0C2DB
:101CA100E82290DE07E4F090DE09F090DE0BF053BD
:101CB1009AFD90DE06E4F090DE04F090DE02F0532F
:101CC100BE7F2290F18DE4F090F183F0021C87AA8F
:101CD10082AB83ACF0C002C003C004121C70AD82A1
:101CE100D004D003D0028D06BD0A0280118A828BF6
:101CF100838CF0EE121DE0A3AA82AB8380D78A8287
:101D01008B838CF0E4021DE0AA82AB83ACF08A8263
:101D11008B838CF0121DF9FD60188D820ABA0001C7
:101D21000BC002C003C004121BBAD004D003D002FE
:101D310080DC021B9243FE02D29122C29153FEFD2E
:011D4100227F
:071E2E0000C20100000008E2
:1000AA001201100102000020FEFF0A0010000102E6
:1000BA00030109024300020100C0320904000001E1
:1000CA000202010005240010010524010101042493
:1000DA00020205240600010705810308000A090433
:1000EA000100020A0000000705040240000007059B
:1000FA0085024000000403090410034A006F0062ED
:10010A000079004700500053001C034300430020BD
:10011A000042006F006F0074006C006F00610064A1
:10012A0000650072000E03300030003000300030ED
:04013A000031000090
:101D4200AA82AB831ABAFF011BC3E49A74808BF098
:101D520063F08095F0500F7CB07D041CBCFF011D28
:101D6200EC4D70F780DE22AA82AB831ABAFF011B08
:101D7200C3E49A74808BF063F08095F040ED228585
:101D8200821085831185F012AD0DAE0EAF0FA81033
:101D9200A911AA128D828E838FF0121DF9FBA3ADB9
:101DA20082AE83888289838AF0EB121DE0A3A88227
:0F1DB200A983EB70DF8510828511838512F022E3
:06017800E478FFF6D8FD5B
:101DC100AC82AD83AE0EAF0FBE0004EF600C1F0FEF
:0F1DD100E50D121DE0A3DEFADFF88C828D832270
:100156007908E94400601B7A01901E2D789E7593FC
:10016600F1E493F2A308B800020593D9F4DAF27524
:0201760093FFF5
:101DE00020F71030F6118883A88220F507F6A88323
:091DF00075830022F280F7F02255
:10017E007800E84400600A79007593F0E4F309D83A
:10018E00FC789EE84401600C790290F000E4F0A344
:04019E00D8FCD9FAB6
:0D01490075815A121E15E5826003020086C2
:101DF90020F71430F6148883A88220F507E6A88313
:101E090075830022E280F7E49322E02275820022A2
:00000001FF
